:020000040800F2
:1000000090090020290200080B2B00085B2600083D
:10001000092B000821060008F72C0008000000004A
:100020000000000000000000000000000F2B00088E
:1000300009070008000000000D2B0008112B000824
:10004000430200084302000843020008430200087C
:1000500043020008430200080D07000825070008B6
:10006000430200084302000843020008430200085C
:10007000430200084302000843020008430200084C
:10008000430200084302000843020008430200083C
:100090002506000843020008430200083D07000847
:1000A000430200084302000843020008430200081C
:1000B0004302000843020008B92B0008430200086D
:1000C00043020008430200084302000843020008FC
:1000D00043020008430200084302000843020008EC
:1000E00043020008430200084302000843020008DC
:1000F00043020008430200084302000843020008CC
:1001000043020008430200084302000843020008BB
:1001100043020008430200084302000843020008AB
:100120005906000843020008430200084302000881
:10013000430200084302000843020008430200088B
:100140004302000831060008430200084302000889
:10015000430200084302000843020008430200086B
:10016000430200084302000843020008430200085B
:100170004302000843020008430200080000000098
:10018000430200084302000800F002F800F03CF8C7
:100190000AA090E8000C82448344AAF10107DA45E2
:1001A00001D100F031F8AFF2090EBAE80F0013F0F8
:1001B000010F18BFFB1A43F001031847FC3400007D
:1001C0001C350000103A24BF78C878C1FAD852070D
:1001D00024BF30C830C144BF04680C6070470000C1
:1001E0000023002400250026103A28BF78C1FBD840
:1001F000520728BF30C148BF0B6070471FB503F0DE
:1002000049FA1FBD10B510BD00F0CFF81146FFF739
:10021000F5FF02F081FD00F0EDF803B4FFF7F2FF07
:1002200003BC00F0F5F80000094880470948004782
:10023000FEE7FEE7FEE7FEE7FEE7FEE7FEE7FEE796
:10024000FEE7FEE704480549054A064B70470000F3
:10025000A92B0008890100089003002090090020C4
:10026000900500209005002053EA020C00F0698000
:100270002DE9F04B4FF00006002B1FBFB3FA83F5BA
:1002800003FA05F424FA05F65E4012BF1643B2FAEB
:1002900082F502FA05F4C5F120051EBF22FA05FC1D
:1002A00044EA0C04203556EA044C4FEA144418BFC3
:1002B000641C4FF000084FF00009904271EB030CF2
:1002C00039D3002919BFB1FA81F701FA07F6B0FA5C
:1002D00080F700FA07F6C7F120071EBF20FA07FCD7
:1002E00046EA0C062037B6FBF4FCA7EB0507103FE7
:1002F00007F01F0BCBF120060CFA0BFB2CFA06F6CD
:1003000044BFB3460026202FA4BF5E464FF0000B2B
:100310005BEA060C08BF4FF0010B19EB0B09ABFBB6
:10032000027C48EB0608C01B06FB02CC0BFB03CC8F
:1003300071EB0C01C1E70B46024641464846BDE859
:10034000F08B13B54FF000004FF00001AFF30080C9
:10035000BDE81C4070474FF0000200B513469446BC
:100360009646203922BFA0E80C50A0E80C50B1F10D
:100370002001BFF4F7AF090728BFA0E80C5048BF21
:100380000CC05DF804EB890028BF40F8042B08BFBF
:10039000704748BF20F8022B11F0804F18BF00F8BB
:1003A000012B7047704770477047754600F02CF876
:1003B000AE4605006946534620F00700854618B052
:1003C00020B5FFF73FFFBDE820404FF000064FF09B
:1003D00000074FF000084FF0000B21F00701AC467A
:1003E000ACE8C009ACE8C009ACE8C009ACE8C00999
:1003F0008D46704710B50446AFF300802046BDE837
:100400001040FFF70ABF0000004870472C0300208F
:1004100001491820ABBEFEE726000200704710B568
:100420000146806B026C12F0500F05D0026CD206B0
:1004300026D500F055FA10BD016C41F4007101643D
:1004400001688A6812F0405F17D1027EAAB9CA6AB1
:1004500012F4700F02D08A6852050ED44A6822F056
:1004600020024A60016C21F480710164016CC904AE
:1004700003D4016C41F00101016400F02FFA10BDBA
:10048000806BC26CBDE810400846104710B5806B09
:1004900040210164416C41F00401416400F020FA04
:1004A00010BD10B5806B00F01AFA10BD464910B5AA
:1004B0004A6822F440324A604A6843681A434A60F4
:1004C00001684A6822F480724A6001684A680369D8
:1004D00042EA03224A6001684A6822F040724A6098
:1004E00001684A6883681A434A6001688A6822F48E
:1004F00000628A6001688A68C3681A438A60816AF8
:100500006FF07062D14201688A6822F070628A607E
:1005100001688A680CD0836A1A438A6001688A6815
:1005200022F040528A6001688A68C36A1A4301E077
:1005300022F040528A6001688A6822F002028A60D2
:1005400001688A68037E42EA43028A6090F82010BC
:10055000002901684A680FD042F400624A600168CD
:100560004A6822F460424A6001684A68174C436A4C
:1005700004EB43331A4301E022F400624A6001684D
:10058000CA6A22F47002CA620168CA6A838B104C7C
:1005900004EB03531A43CA6201688A6822F40072AA
:1005A0008A6001688A6890F8303042EA43228A60A3
:1005B00001688A6822F480628A6001688A684069FA
:1005C00042EA8020886010BD0023014000E0FFFF68
:1005D0000000F0FF1048818AC278914209D20F4A88
:1005E000037952F82320836B1A448263491C818269
:1005F0007047816B0379B1FBF2F1084A603A42F827
:1006000023100021818281630279102A01D20179AD
:10061000491C0171704700000000002034010020D7
:10062000FEE70000014800F01ABC0000BC010020F9
:10063000014800F014BC0000E40100200449054A10
:10064000086000208860C86012780A6108757047E9
:100650008C02002000000020014800F089BE00004C
:10066000CC02002001681823CAB2103AB2FBF3F2A0
:10067000054B6FF30901032A9B5CC36500D9091D73
:1006800081650846704700009E36000810B5014697
:1006900000208B698A6A4FF0C07453B1B3F5005FD4
:1006A00015D072B1012A0CD0022A0AD0032A09D12E
:1006B00004E01AB1012A06D0022A03D1C96AC9018D
:1006C00000D5012010BDC96AA142FAD010BD002A90
:1006D000F7D0012AF2D0022AF3D0032AF3D010BDBA
:1006E00030B50468256825F48025256004686360BA
:1006F0008368402B036803D099600068C26030BDF6
:100700009A600068C16030BD704700000349002056
:10071000087003490870012000F09CBF050000200C
:100720000E000020034900200870034908700220D1
:1007300000F090BF060000200E0000202DE9F041DF
:100740000E4800240E4F04704FF480752946384639
:1007500001F084F808B10B4804704FF4007631467C
:10076000384601F07BF808B107480470284600F0CD
:1007700071FF3046BDE8F04100F06CBF0E00002074
:1007800000040240070000200800002072B6FEE7C7
:1007900078B50024009490F83C20012A19D0012259
:1007A00080F83C200A6807230568092A13D9EE68F7
:1007B0000A3A02EB420293409E43EE600B788A684D
:1007C0000A3B03EB43039A400368DD682A43DA607F
:1007D00010E0022078BD2E6902EB420293409E4356
:1007E0002E610B788A6803EB43039A4003681D6906
:1007F0002A431A614A681F23072A13D205686E6BC1
:10080000521E02EB820293409E436E630B790A886C
:100810005B1E92B203EB83039A4003685D6B2A432D
:100820005A6327E005680D2A12D22E6BD21F02EB05
:10083000820293409E432E630B790A88DB1F92B29B
:1008400003EB83039A4003681D6B2A431A6311E08C
:10085000EE6A0D3A02EB820293409E43EE620B7900
:100860000A880D3B92B203EB83039A400368DD6A6A
:100870002A43DA62164B0568144A9D4206D10D6878
:10088000122D03D1556845F48005556005689D42D9
:1008900018D10B68102B01D0112B13D1536843F4DE
:1008A00000035360096810290CD10A490A4A0968F3
:1008B000B1FBF2F101EB8101490000E0491E00911A
:1008C0000029FBD180F83C40002078BD0023014086
:1008D00000200140D000002040420F0070477047C8
:1008E000704770B504004FF0000503D0206C00265F
:1008F00010B107E0012070BD204600F01DF86664CD
:1009000084F83C60206CC00610D4206C20F4885021
:1009100040F0020020642046FFF7C8FD6664206CAA
:1009200020F0020040F00100206400E0012584F87E
:100930003C60284670BD000070B586B006461421A4
:100940006846FFF708FD2C493068884252D12B4891
:100950000025016841F4807101600068274900F4B6
:10096000807014390590086840F004000860086839
:1009700000F004000590086840F001000860086875
:1009800000F001000590086840F002000860086867
:10099000032400F0020005903F208DE831006946F5
:1009A000174800F063FEFF208DE8310069461548C6
:1009B00000F05CFE009469461348CDE9014500F063
:1009C00055FE134C1148C4E900050015A560C4E9A3
:1009D0000350800060618000A0618011E0614002EE
:1009E000C4E90805204600F093FD08B1FFF7CEFEEC
:1009F000B463A66306B070BD0020014044380240D5
:100A0000000802400000024000040240106402405E
:100A1000CC020020F8B5044600200E46009094F861
:100A20003C10012907D0012184F83C1021688B6813
:100A3000DB0702D011E00220F8BD8B6843F0010310
:100A40008B604049404B0968B1FBF3F101EB410178
:100A500000E0491E00910029FBD121688B68DB056D
:100A600003D58B6823F480738B6021688B68DB0768
:100A70005DD0236C40F20165AB4343F48073236483
:100A80004968490505D5216C21F4005141F4805194
:100A90002164216CC90404D5616C21F006016164F4
:100AA00000E0606484F83C00A16B2948274DC863CE
:100AB000A16B28480864A16B2748C86421686FF0BF
:100AC000220008602068416841F080614160206830
:100AD000816841F4807181602168134632464C314F
:100AE000A06B00F07FFD68681C49C006206806D036
:100AF000884224D1816811F0405F13D01FE0884202
:100B0000F8D0174A904203D1D1F80423D206F1D08D
:100B1000144A904213D1D1F8041301F01F01102997
:100B2000E8D30CE0816841F08041816007E0206CEF
:100B300040F010002064606C40F001006064002010
:100B4000F8BD0000D000002040420F00002301400B
:100B50001F040008A30400088D04000800200140C1
:100B6000002101400022014090F82020012A07D0F6
:100B7000022A05D0416A41F4802141620120704778
:100B8000006842690A43426100207047F0B590F85E
:100B900020500468A468012D05D0022D03D0416ABD
:100BA00041F480215DE014F0406F01D1E50055D59E
:100BB000C4F30164022C03D9416A41F4000150E0FE
:100BC0000125A5401D608D684FF4C0739DB1CE68AE
:100BD00035434E6845EAC605066803EB0417F55130
:100BE0004FF4C275076805EB04150E697E51097D47
:100BF000012905D009E00E88CD6845EA4655EBE7A6
:100C000001684E5946F480764E511179D57956795E
:100C100041EA056195792D0445EA062529434FF4FB
:100C2000C676056806EB0416A9511178D57841EA15
:100C30000561957852782D0445EA022211434FF45C
:100C4000C475026805EB04155151006803EB0411EB
:100C5000425842F0010242500020F0BD416A41F486
:100C6000001141620120F0BD10B590F82020012A4A
:100C700007D0022A05D0416A41F480214162012057
:100C800010BD3B48D0F8002242F00102C0F800221B
:100C9000D0F8002222F47C52C0F80022D0F80022C2
:100CA0004B6A42EA0322C0F800220A7D02F01F03C9
:100CB00001229A40D0F81C329343C0F81C32CB6911
:100CC000B3B9D0F80C329343C0F80C328C894B681E
:100CD00064F31F434C6900EBC404C4F840320C8930
:100CE0000B6864F31F434C6900EBC404C4F844323E
:100CF000CB69012B16D1D0F80C321343C0F80C325B
:100D00000C884B6864F31F434C6900EBC404C4F8BF
:100D100040320C89CB6864F31F434C6900EBC40478
:100D2000C4F844328B69002BD0F804320ED0134340
:100D3000C0F804320B69002BD0F8143208D01343EA
:100D4000C0F81432096A012904D008E09343EFE7A0
:100D50009343F5E7D0F81C121143C0F81C12D0F8E9
:100D6000001221F00101C0F80012002010BD0000A7
:100D700000640040704730B590F82040012C05D049
:100D8000022C03D0416A41F480215DE0046800290F
:100D900055D02469A40754D04FF4D874056804EBE7
:100DA00001142D5915F00405956005682D594ED094
:100DB000ED08556005682C5904F00204D4604FF426
:100DC000DA74056804EB01142D5905F00F0515615F
:100DD00005682D59C5F30725956105682C59240C24
:100DE00054614FF4DC72046802EB0112A4581C70C9
:100DF0000468A458240A5C700468A458240C9C70ED
:100E00000468A258120EDA704FF4DE72046802EB26
:100E10000112A4581C710468A458240A5C71046867
:100E2000A458240C9C710468A258120EDA71006850
:100E300081B1016941F020010161002030BDE46809
:100E4000A8E7416A41F400114162012030BD6D0DF7
:100E50001560AFE7C16841F02001C160EDE72DE901
:100E6000F05F0546006800244669D0F80490876862
:100E7000D0F80CB0D0F810A0D0F81880F10748D006
:100E8000F90714D001218160B80703D5284600F086
:100E900068FA0CE0780702D54FF4006407E03807E1
:100EA00002D54FF4805402E0284600F059FAF805C4
:100EB00016D529684FF480708860B80503D5284698
:100EC00000F051FA0CE0780502D544F4005407E034
:100ED000380502D544F4804402E0284600F042FA86
:100EE000F80316D529684FF480308860B80303D51D
:100EF000284600F03AFA0CE0780302D544F40044A6
:100F000007E0380302D544F4803402E0284600F0BC
:100F10002BFA300707D55FEACB6004D5296810208B
:100F200044F40074C86070074FF0080707D55FEA03
:100F30000B7004D52868C760284600F09BF9B007FD
:100F400006D52868C068800702D0284600F094F9CA
:100F5000700607D55FEACA6004D52968102044F4FA
:100F600080640861B00607D55FEA0A7004D5286876
:100F70000761284600F0A2F9F00606D52868006946
:100F8000800702D0284600F09BF9B00308D55FEA3D
:100F9000C96005D5296810204860284600F0B2F9DC
:100FA000F00307D55FEA097004D528684760284632
:100FB00000F0DCF9300446D55FEA497040D5F00511
:100FC00004D55FEAC87001D044F00104B00504D52F
:100FD0005FEA887001D544F00204700504D55FEA29
:100FE000487001D544F00404300529D518F0700F7D
:100FF00026D008F07000402815D006DC102809D053
:1010000020280AD0302816D10AE050280ED06028B7
:1010100011D10EE044F008040DE044F010040AE0A1
:1010200044F0200407E044F0400404E044F080046D
:1010300001E044F480742868816921F070018161C5
:10104000296804204860002C05D0686A2043686243
:101050002846FFF78FFEBDE8F09F70B5040003D06F
:1010600094F8200010B104E0012070BD204600F08B
:1010700081F82068016841F00101016000F0F8FB8F
:101080000546052604E000F0F3FB401B0A2811D8B2
:1010900020684068C007F6D02068016821F002018E
:1010A000016000F0E5FB05460BE000F0E1FB401BB2
:1010B0000A2806D9606A40F40030606284F8206033
:1010C000D2E7206840688007EFD4207E012820689E
:1010D00001683DD021F080010160607E0128206818
:1010E000016838D021F040010160A07E012820680D
:1010F000016833D021F020010160E07E01282068E2
:1011000001682ED041F010010160207F0128206885
:10111000016829D021F008010160607F0128206862
:10112000016824D021F004010160D4E902010843E0
:10113000D4E90412114308436168491E0843216839
:10114000C86100206062012084F82000002070BD8A
:1011500041F08001C0E741F04001C5E741F02001C6
:10116000CAE721F01001CFE741F00801D4E741F0D0
:101170000401D9E7F0B587B0044614216846FFF7AB
:10118000EAF8374B3748DFF8D4E01968D4F800C0E4
:10119000344A02250326092710300024491CF4454F
:1011A00024D11960012907D1016841F00071016063
:1011B000006800F000700590106840F001001060B9
:1011C000106802AB00F0010005904FF4C050CDE96B
:1011D000000583E8D0006946234800F047FA002262
:1011E0001146142000F0B2FB142033E0DFF87CE05D
:1011F000F44531D1D0F800C04CF0806CC0F800C08C
:10120000D0F800C001290CF0806CCDF814C0196032
:1012100007D1016841F000710160006800F00070C2
:101220000590106840F002001060106802AB00F0FA
:10123000020005904FF44050CDE9000583E8D0004E
:1012400069460B4800F012FA00221146412000F0D6
:101250007DFB412000F06CFB07B0F0BD0064004056
:10126000C00000203038024000000240006800400A
:10127000000402407047000010B50E4B0E4A0021DA
:10128000FFF779FD08B172B6FEE70B48094AB03A9C
:10129000017C1170008880B2FFF7D0F9054B064938
:1012A000743B3831BDE81040024AA1F1A800FFF7B5
:1012B0006DBC0000B0000020540200207047000008
:1012C00010B50E4B0E4A0121FFF755FD08B172B65D
:1012D000FEE70B48094AB83A017C1170008880B2D9
:1012E000FFF7ACF9054B06497C3B1C31BDE81040CB
:1012F000024AA1F1D000FFF749BC0000B80000206D
:10130000700200207047000070B5044690F820007D
:10131000012804D0606A40F40020606218E00220D6
:1013200084F820002068016821F00101016000F0CC
:101330009FFA05460EE000BF00F09AFA401B0A280B
:1013400008D9606A40F400306062052084F820000B
:10135000012070BD20684068C007EDD1606270BD9B
:10136000704770477047704770477047704700007C
:101370002DE9F84304464FF00009CDF8009063488A
:101380004FF41651A56D0068B0FBF1F72E6894F884
:101390005C10082000FA01F131420FD021680A6880
:1013A00052070BD50A6822F004020A6094F85C1018
:1013B0008840A860606D40F00100606594F85C10A2
:1013C0004FF0010808FA01F0304208D0216849695D
:1013D000090604D5A860606D40F00200606594F8CD
:1013E0005C1004208840304208D0216809688907D1
:1013F00004D5A860606D40F00400606594F85C104E
:1014000010208840304218D021680968090714D597
:10141000A86020680168490304D50068000308D566
:10142000A16C07E00168C90503D4016821F0080137
:101430000160216C09B12046884794F85C10202097
:101440008840304231D021680968C9062DD5A8608E
:1014500094F8350005282068016806D0490347D56F
:10146000006800031DD4616C1CE021F016010160CE
:101470002068416921F080014161206C08B9A06CAD
:1014800020B12068016821F00801016094F85C1027
:101490003F208840A86084F8358084F83490216D1E
:1014A0001FE0E16B09B120468847606D00282BD012
:1014B000606DC00714D0052084F8350020680168ED
:1014C00021F0010101600098401C0090B84203D84F
:1014D00020680068C007F6D184F8358084F834901D
:1014E000E16C002910D001B02046BDE8F043084768
:1014F0000168C905D5D4016821F01001016084F8A4
:10150000358084F83490CCE7BDE8F883D000002023
:101510002DE9F041044600F0ABF906465CB102202B
:1015200084F83500002584F834502068016821F0E3
:10153000010101600DE00120BDE8F08100F098F9A3
:10154000801B052805D920206065032084F835001C
:10155000F2E720680068C007F0D1226811682048CF
:101560000140D4E901031843D4E903363343184357
:1015700063691843A3691843E3691843236A18434E
:101580000843616A042903D1D4E90B1319430843C2
:10159000106020684069666A20F0070130460E43FB
:1015A000012704280CD1A06A0643E06A40B1204616
:1015B000FFF76CF820B14020606584F83570BAE719
:1015C000206846612046FFF74DF894F85C203F21E3
:1015D00091408160656584F835700020ACE70000BB
:1015E0003F8010F02DE9F0410446866D90F83400FC
:1015F000002501280DD0012084F8340094F83570BE
:101600000020012F07D084F8340002252846BDE8C9
:10161000F0810220FBE7022784F8357060652046E0
:10162000FFF75EF894F85C103F208840B0602068B7
:10163000016841F016010160206C20B1206801684A
:1016400041F0080101602068016841F0010101607A
:10165000DCE77047044910B50A68024202D008600E
:10166000FFF7F7FF10BD0000143C01402DE9F84FD3
:10167000DFF8BCA10022012503264FF00F090AF173
:10168000040BAAF1040E00BF0B6805FA02F4234014
:10169000A34270D10F7907F00307012F01D0022F69
:1016A00016D187684FEA420806FA08FC27EA0C07B9
:1016B000D1F80CC00CFA08FC4CEA070CC0F808C0C2
:1016C0004768A7430C79C4F3001494403C4344603A
:1016D0000C79E443A4070AD0C4684FEA420C06FA26
:1016E0000CF7BC438F6807FA0CF72743C7600C79E7
:1016F00004F00304022C12D1D40800EB840CDCF8B3
:1017000020405707FF0E09FA07F824EA0804D1F829
:10171000108008FA07F848EA0408CCF8208004682A
:101720004FEA420C06FA0CF7BC430F7907F00307A7
:1017300007FA0CF7274307604C6814F4403F70D059
:101740003C4C276847F480472760246822F0030751
:1017500004F480440094384C07EB040CDCF808488F
:1017600097074FEA177809FA08F7BC43334FB84296
:1017700002D1002724E054E0314FB84201D10127C3
:101780001EE0304FB84201D1022719E02E4FB84277
:1017900001D1032714E02D4FB84201D104270FE0F7
:1017A0002B4FB84201D105270AE02A4FB84201D198
:1017B000062705E0284FB84201D1072700E0082797
:1017C00007FA08F72743CCF80878DAF800405746BC
:1017D000D1F804C09C435FEACC2C00D51C433C608C
:1017E000DBF800405F46D1F804C09C435FEA8C2CD4
:1017F00000D51C433C60DEF800407746D1F804C0B9
:101800009C435FEA8C3C00D51C433C60084F083F7A
:101810003C68D1F804C09C435FEACC3C00D51C4333
:101820003C60521C102AFFF42FAFBDE8F88F000077
:10183000083C0140443802400030014000000240B2
:101840000004024000080240000C02400010024068
:101850000014024000180240001C024000690840C9
:1018600000D0012070470AB1816170470904FBE78D
:101870000148806870470000C40000200248816869
:101880000278114481607047C40000200B4810B5F5
:10189000016841F400710160016841F480610160F8
:1018A000016841F480710160032000F06FF80F209F
:1018B00000F006F800F024F8002010BD003C0240C3
:1018C00070B50D4D04464FF47A712878B1FBF0F0F5
:1018D0000A490968B1FBF0F000F0EAFA48B9102CA7
:1018E00007D200222146501E00F030F800206C6024
:1018F00070BD012070BD0000C4000020D000002099
:101900000A4808B5016841F480410160006800F4AC
:10191000804000900548001F016841F0805101603F
:10192000006800F08050009008BD0000443802407C
:10193000002809DB00F01F020121914040098000CE
:1019400000F1E020C0F8001170470000F0B40E4B29
:101950001B680C46C3F30223C3F10705042D00D90D
:101960000425191D072901D2002300E0DB1E0126F2
:1019700006FA05F1491E214099409E40761E164008
:101980003143F0BC01F0B8B90CED00E0064900F0BD
:10199000070208684FF6FF03184040EA0220034A96
:1019A00010430860704700000CED00E00000FA05ED
:1019B0002DE9F0470E46050065D0DFF81481D8F810
:1019C0000000F7B200F00700B04207D288F80070BC
:1019D000D8F8000000F00700B04254D128683D4C10
:1019E000810712D5400703D5206840F4E0502060FD
:1019F0002878000703D5206840F460402060206804
:101A0000A96820F0F000084320602878C0072DD096
:101A1000304968680839012812D0022813D00328F9
:101A200011D00968890700292DDA216821F0030106
:101A300001432160FFF71CFF814641F2883A0EE026
:101A400009688903EFE709688901ECE7FFF710FFF0
:101A5000A0EB0901514502D90320BDE8F0872068B9
:101A6000696800F00C00B0EB810FEFD1D8F80010DE
:101A7000404601F00701B14207D90770006800F045
:101A80000700B04201D00120E7E72878400705D5DC
:101A90002068E96820F4E0500843206028780007B7
:101AA00006D52068296920F4604040EAC100206022
:101AB00000F018F82168084AC1F30311515CC840CE
:101AC0000649086006480068FFF7FAFE0020C4E7F0
:101AD000003C024008380240A6360008D000002032
:101AE000C8000020154810B5006810F00C0214481A
:101AF00013D04110042A0FD0082A0ED10F4C241FF6
:101B00002268236802F03F025B0207D52068C0F319
:101B10008810A0FB010106E0084610BD2168C1F352
:101B20008811A1FB00010023FEF79EFB2168C1F391
:101B30000141491C4900B0FBF1F010BD08380240DA
:101B40000024F4002DE9F84F04006ED02078DFF86F
:101B50004C93C007A9F104054AD009F104000168BB
:101B6000C1F38101012908D00068C0F38100022877
:101B70000AD1D9F80000400206D52868800337D57D
:101B800060680028E1D033E06068B0F5803F10D095
:101B9000B0F5A02F286810D020F480302860286885
:101BA00020F4802028606068A8B1FFF761FE064637
:101BB0000DE0286840F48030F4E740F4802028608D
:101BC000F7E700BFFFF754FE801B642873D828682E
:101BD0008003F7D50CE0FFF74BFE064605E000BF9B
:101BE000FFF746FE801B6428F0D828688003F7D4EE
:101BF0002078DFF8AC8280074FF0000A3ED5A74876
:101C0000001D016811F00C0F08D00068C0F38100BE
:101C100002280BD1D9F80000400207D428688007B9
:101C200016D5E068012800D112E033E1E068B8B1D0
:101C30000120C8F80000FFF71BFE064605E000BFC4
:101C4000FFF716FE801B0228C0D828688007F7D54A
:101C50002868216920F0F80040EAC10028600DE002
:101C6000C8F800A0FFF704FE064604E0FFF700FEF8
:101C7000801B02281FD828688007F7D42078000727
:101C800022D5864F87486169703771B101210160A3
:101C9000FFF7EEFD064604E0FFF7EAFD801B022891
:101CA00009D838688007F7D50EE0C0F800A0FFF724
:101CB000DFFD064605E082E0FFF7DAFD801B022823
:101CC0007DD838688007F7D42078400768D5DFF8DA
:101CD000CCB100270BF13C0BDBF80000C0000BD4AB
:101CE000DBF8001041F08051CBF80010DBF8000069
:101CF000012700F0805000906B4E3068C00510D472
:101D0000306840F480703060FFF7B2FD009005E06D
:101D1000FFF7AEFD0099401A022850D83068C00580
:101D2000F6D55E4EA0686C3601280FD005283068C5
:101D300010D020F001003060306820F004003060E6
:101D4000A068B8B1FFF794FD00900FE0306840F054
:101D50000100F4E740F004003060F7E7FFF788FD8A
:101D60000099411A41F28830814266D83068800774
:101D7000F4D50EE0FFF77CFD009007E0FFF778FD5B
:101D80000099411A41F28830814256D83068800764
:101D9000F4D42FB1DBF8001021F08051CBF8001003
:101DA000A069C8B33D49091D0968C1F38101022931
:101DB0004AD00228504607D0C8F8600000E03CE056
:101DC000FFF756FD04463BE04746C8F86000FFF7C2
:101DD0004FFD064605E000BFFFF74AFD801B0228C5
:101DE0002BD828688001F7D4D4E907010843A16AF9
:101DF0002E4A490802EB0141626A41EA8211084316
:101E000094F82C1040EA0161C9F8001001203866EE
:101E1000FFF72EFD044606E03EE000BFFFF728FD79
:101E2000001B022809D828688001F7D534E000BFDC
:101E3000FFF71EFD001B022802D90320BDE8F88F22
:101E400028688001F4D427E00128F7D0D9F80000F1
:101E5000E26900F4800191421CD1226A00F03F0146
:101E6000914217D147F6C071626A0140B1EB821FFF
:101E700010D1A26A4FF0FF3300F4403103EB52025D
:101E8000B1EB024F06D194F82C1000F07060B0EB6B
:101E9000016F01D00120D1E70020CFE704380240D4
:101EA00000004742800E4742007000400000FFFFE4
:101EB00010B5401EB0F1807F01D3012010BD4FF05E
:101EC000E02460610F21601700F016FF0020A06180
:101ED00007202061002010BD7047704770B590F852
:101EE0003C20012A32D0012480F83C40022280F8B4
:101EF0003D2003685A689D6822F070060A683243E4
:101F00005A60134B02689A4214D0B2F1804F11D03C
:101F1000104B9A420ED0104B9A420BD00F4B9A4264
:101F200008D00F4B9A4205D00E4B9A4202D00E4B6E
:101F30009A4204D1496825F080031943916080F8E2
:101F40003D40002180F83C10084670BD022070BD65
:101F5000000001400004004000080040000C004068
:101F600000040140004001400018004010B504008A
:101F700003D094F83D0010B107E0012010BD00200F
:101F800084F83C00204600F01FF8022084F83D0051
:101F9000211D206800F016FE012084F8460084F818
:101FA0003E0084F83F0084F8400084F8410084F843
:101FB000420084F8430084F8440084F8450084F823
:101FC0003D00002010BD000008B500680B498842A4
:101FD00012D10B48016841F0040101600068002241
:101FE00000F00400009011461E20FFF7AFFCBDE892
:101FF00008401E20FFF79CBC08BD00000008004000
:102000004038024090F83D10012901D0012070476E
:10201000022180F83D100168CA6842F00102CA60DE
:1020200000681149884214D0B0F1804F11D00F4997
:1020300088420ED00E4988420BD00E49884208D003
:102040000D49884205D00D49884202D00C4988428A
:1020500004D1816801F00701062903D0016841F02D
:1020600001010160002070470000014000040040B1
:1020700000080040000C0040000401400040014006
:102080000018004070B5044690F83C000025012877
:1020900017D0012684F83C60022084F83D002068B7
:1020A000826822F0770222F47F428260086850281A
:1020B00038D00DDC20284FD005DC90B3102811D18A
:1020C0004AE0022070BD302846D040280AD13BE0CB
:1020D00060282FD070280DD0B0F5805F03D0B0F508
:1020E000005F12D0012584F83D60002084F83C0098
:1020F000284670BDCB68D1E90121206800F0C6FDFB
:102100002068816841F0770109E0CB68D1E90121BD
:10211000206800F0BBFD2068816841F48041816047
:10212000E1E719E0CA684968206800F0C1FD502164
:10213000206806E0CA684968206800F0CAFD60218E
:10214000206800F0ADFDCEE7CA684968206800F05D
:10215000AFFD40212068F4E7226801461046F0E711
:10216000704770B50446006801694FF00005C94327
:10217000890715D4C168C943890711D4E91E0161D3
:1021800001202077206880698007204602D0FFF771
:10219000E7FF04E000F098F8204600F096F8257775
:1021A00020680169C943490717D4C168C943490771
:1021B00013D46FF004010161022020772068806948
:1021C00010F4407F204602D0FFF7CAFF04E000F081
:1021D0007BF8204600F079F8257720680169C9432B
:1021E000090716D4C168C943090712D46FF0080162
:1021F0000161042020772068C0698007204602D052
:10220000FFF7AEFF04E000F05FF8204600F05DF855
:10221000257720680169C943C90617D4C168C94335
:10222000C90613D46FF010010161082020772068DF
:10223000C06910F4407F204602D0FFF791FF04E010
:1022400000F042F8204600F040F825772068016948
:10225000C943C90708D1C168C943C90704D1891E48
:102260000161204600F032F820680169C94309067F
:1022700009D4C168C943090605D46FF08001016122
:102280002046FFF729FE20680169C943490609D4A1
:10229000C168C943490605D46FF040010161204679
:1022A00000F0DAF920680169C94389060BD4C168D6
:1022B000C943890607D46FF0200101612046BDE8BB
:1022C0007040FFF70ABE70BD704770472DE9F047B8
:1022D000D34C05462DED0A8B0026608A6178884232
:1022E0000ED308202070A08E80B2FEF7A7F9CD494A
:1022F00004F13C031A1DA1F1D000FEF747FC6682F1
:10230000E08AA17888420FD302202070208E80B20C
:10231000FEF794F9C24BC3493C33A3F12D02A1F15E
:10232000D000FEF733FCE682BF499FEDC09B2868D2
:10233000884236D1608A401C6082E08A401CE0827C
:10234000608D401C80B26085B0F57A7F03D1A08D8E
:10235000401CA0856685FEF73DF9A07B58B9608CCE
:10236000401C6084A08C401CA084E08C401CE08455
:10237000208D401C2085618C40F6B830814201D907
:1023800084ED149BA18C814201D984ED169BE18CD4
:10239000814201D984ED189B218D814201D984EDC0
:1023A0001A9B60799FEDA3CB9FEDA4BB9FEDA58BFE
:1023B0009FEDA6AB9A4D01278035E0BB608C00F005
:1023C0006EFF53EC1C2B00F0E5FD41EC100B51ECC3
:1023D0001B0B53EC102B00F0DDFD53EC182B00F021
:1023E00071FF53EC1A2B00F06DFF41EC100B84EDE4
:1023F0001C0B67716684A07A617A804689468842A0
:102400000CD295ED041B51EC100B53EC112B00F08A
:1024100019FDC5E9040108F10100A072C1B24846E6
:10242000494512D100F03BFF41EC100B53EC102B4F
:1024300095ED040B00E008E051EC100B00F0AAFD54
:10244000C4E9140185ED049BA672A079F0BBA08CB1
:1024500000F025FF53EC1C2B00F09CFD41EC100B11
:1024600051EC1B0B53EC102B00F094FD53EC182B8C
:1024700000F028FF53EC1A2B00F024FF41EC100B66
:1024800084ED1E0BA771A684E07A617A80468946A6
:1024900088420CD295ED061B51EC100B53EC112B1E
:1024A00000F0D0FCC5E9060108F10100E072C1B2FC
:1024B0004846494512D100F0F2FE41EC100B53ECB6
:1024C000102B95ED060B51EC100B00E006E000F030
:1024D00061FDC4E9160185ED069BE672DFF874A183
:1024E00004215046FFF7BAF9012848D1E079E0BB52
:1024F000E08C00F0D4FE53EC1C2B00F04BFD41ECC3
:10250000100B51EC1B0B53EC102B00F043FD53EC64
:10251000182B00F0D7FE53EC1A2B00F0D3FE41EC41
:10252000100B85ED000BE771E684207B617A804615
:10253000894688420CD295ED081B51EC100B53ECE8
:10254000112B00F07FFCC5E9080108F101002073A0
:10255000C1B24846494512D100F0A1FE41EC100B32
:1025600053EC102B95ED080B00E008E051EC100B3C
:1025700000F010FDC4E9180185ED089B26730821C1
:102580005046FFF76BF9012846D1207A002843D145
:10259000208D00F084FE53EC1C2B00F0FBFC41EC82
:1025A000100B51EC1B0B53EC102B00F0F3FC53EC15
:1025B000182B00F087FE53EC1A2B00F083FE41EC41
:1025C000100BB04685ED020B27722685677B667A75
:1025D000B7420BD295ED0A1B51EC100B53EC112BAB
:1025E00000F030FCC5E90A017F1C6773F8B2B04205
:1025F00012D1304600F053FE41EC100B53EC102B7F
:1026000095ED0A0B51EC100B00F0C4FCC4E91A0163
:1026100085ED0A9B84F80D80BDEC0A8BBDE8F08740
:10262000000000208C020020000800400000000094
:10263000000000000000000000408F40000000008B
:102640000000F03F000000000000C03F000000005C
:1026500000004E40000C02407047FEE77FB50025A9
:1026600060480095019502955D490395016001243C
:102670004FF480310461C0E90115047680F82050E0
:102680005949C0E90A151026C661C56080F8304076
:102690004461FEF726F908B172B6FEE7CDE90054B1
:1026A000042569464F480295FEF772F808B172B6E4
:1026B000FEE70094022469464A480194FEF768F850
:1026C00008B172B6FEE700940324694645480194B8
:1026D000FEF75EF808B172B6FEE769464148CDE9FB
:1026E0000045FEF755F808B172B6FEE70524CDE9BE
:1026F000005469463B48FEF74BF808B172B6FEE756
:1027000000940624694637480194FEF741F808B161
:1027100072B6FEE700940724694632480194FEF73A
:1027200037F808B172B6FEE70094082469462D48D0
:102730000194FEF72DF808B172B6FEE70094092463
:10274000694628480194FEF723F808B172B6FEE7FF
:1027500000940A24694623480194FEF719F808B149
:1027600072B6FEE700940B2469461E480194FEF7FA
:102770000FF808B172B6FEE700940C2469461948B8
:102780000194FEF705F808B172B6FEE700940D2437
:10279000694614480194FDF7FBFF08B172B6FEE7E5
:1027A00000940E2469460F480194FDF7F1FF08B12B
:1027B00072B6FEE700940F2469460A480194FDF7BB
:1027C000E7FF08B172B6FEE7CDE900466946054865
:1027D000FDF7DEFF002801D072B6FEE77FBD0000E6
:1027E00000200140740100200100000F70B51E4858
:1027F0001C490E25C0E9001509050024C0E9021492
:1028000004614461047644768476C4760477447720
:10281000FEF723FC08B172B6FEE713480121E83049
:102820004FF6FF724461C0E90641C0E900248460AC
:10283000C4600461C0E908150146E838FEF714FADF
:1028400008B172B6FEE70848FEF75EFD08B172B641
:10285000FEE703210448FEF787F9002801D072B68D
:10286000FEE770BD00640040BC01002070B51E484A
:102870001C490E2500240160C0E90154C4600461B4
:102880004461047644768476C47604774477FEF710
:10289000E4FB08B172B6FEE713481421C0304FF6CE
:1028A000FF72C0E905140121C161C0E90024846000
:1028B000C0E90341C0E908150146C038FEF7D4F964
:1028C00008B172B6FEE70848FEF71EFD08B172B601
:1028D000FEE711210448FEF747F9002801D072B63F
:1028E000FEE770BD00680040E40100202DE9F04FD4
:1028F00087B014216846FDF72EFD63480024016867
:1029000041F004010160016801F0040105910168D2
:1029100041F080010160016801F0800105910168CA
:1029200041F001010160016801F0010105910168B8
:1029300041F002010160016801F0020105910168A6
:1029400041F010010160016801F01001059101687A
:1029500041F00801016000684FF47C4500F0080078
:102960000590012229464948FEF77DFFDFF820A1A6
:1029700001224FF40C415046FEF775FFDFF814B109
:1029800001224FF60F715846FEF76DFFDFF8088100
:102990004FF47076012231464046FEF764FFDFF8BF
:1029A000FC904FF4E067012239464846FEF75BFF92
:1029B000002240215846FEF756FF00951125CDE92B
:1029C0000154694631480394FEF750FE4FF44060CD
:1029D0000090CDE90154694650460394FEF746FE47
:1029E0004FF4004000900125CDE90154694650465E
:1029F0000394FEF73BFE4FF64F700090CDE9015473
:102A0000694658460394FEF731FE0096CDE901541D
:102A1000694640460394FEF729FE0097CDE901542C
:102A2000694648460394FEF721FE4FF440704FF488
:102A30008815CDE90005694602945046FEF716FE5A
:102A40000320CDE90005694602941048FEF70EFE0A
:102A5000002201210620FEF779FF0620FEF768FF1D
:102A6000002201210720FEF771FF0720FEF760FF1B
:102A7000002201211720FEF769FF1720FEF758FFFB
:102A800007B0BDE8F08F000030380240001002406F
:102A900000040240000C0240000802400000024016
:102AA00010B586B000241748009401940294039452
:102AB000049413490594016045F20721C0E901140B
:102AC0000121C0E9031480218161FFF74FFA08B1A9
:102AD00072B6FEE74FF48050009069460948FFF750
:102AE000D1FA08B172B6FEE7049404A9054805942A
:102AF000FFF7F4F9002801D072B6FEE706B010BD6A
:102B0000000800400C020020FEE7FEE77047704717
:102B1000FEF7B4BE30B593B030216846FDF71BFC1C
:102B200014210CA8FDF717FC1D480025016841F091
:102B300080510160006800F08050119019480168D0
:102B400041F4804101600068022400F4804011904B
:102B500001200090000401908001CDE9064008AA00
:102B60000420A82182E813000B906846FEF7EAFFD4
:102B700008B172B6FEE70CA90F2081E831004FF4CE
:102B8000C0500F904FF48050109005210CA8FEF714
:102B90000FFF002801D072B6FEE713B030BD000071
:102BA00040380240007000400248016841F4700162
:102BB0000160704788ED00E00148FFF7D2BA0000DD
:102BC0000C020020F0B50268254C264D264E274FFA
:102BD000274B4FF0804CA04209D0604507D0A84257
:102BE00005D0B04203D0B84201D0984204D122F0BF
:102BF000700E4A6842EA0E02A0421BD0604519D00E
:102C0000A84217D0B04215D0B84213D0984211D084
:102C1000184DA8420ED0184DA8420BD0174DA8420F
:102C200008D0174DA84205D0164DA84202D0164D27
:102C3000A84203D122F44075CA682A434D6922F0A4
:102C400080022A4302608A68C2620A688262A042E5
:102C500001D0984201D10969016301214161F0BDB0
:102C6000000001400004004000080040000C00404B
:102C70000004014000400140004401400048014080
:102C800000180040001C00400020004010B584687F
:102C900042EA032224F47F440A432243826010BDA7
:102CA000826822F070020A4342F007018160704797
:102CB00010B5036A046A24F001040462846924F0F4
:102CC000F00444EA021423F00A020A438461026217
:102CD00010BD10B5036A23F0100303628369046A10
:102CE00023F4704343EA023224F0A00343EA0111C3
:102CF0008261016210BDFEE70907090E002804DBAE
:102D000000F1E02080F80014704700F00F0000F19F
:102D1000E02080F8141D704708B5FEF7B7FDFFF7F7
:102D2000F9FEFFF7E3FDFFF761FDFFF79FFD404868
:102D3000016841F480010160006800F480000090A7
:102D4000FFF78CFCFFF7ACFE002211463820FEF79F
:102D5000FDFD3820FEF7ECFD35481030016841F0EC
:102D600000710160006800F0007000903148FFF7CA
:102D700049F930491022D83901F14000FDF74AFEE7
:102D80002D4F07F14006002057F820102B4A5143E1
:102D9000090C26F81010401C1028F5DB308A284C4E
:102DA000A083708AE083B08A2083F08A6083708B6E
:102DB000208404F10F0180B20870000A487094ED7D
:102DC000140B51EC100B00F03DFA04F14005287093
:102DD000000A687094ED160B51EC100B00F032FAFB
:102DE000A870000AE87094ED1A0B51EC100B00F07B
:102DF00029FA2871000A687194ED180B51EC100B38
:102E000000F020FAA871000AE87104F14800A18BD3
:102E10000170090A4170E18B8170090AC170218B30
:102E20000171090A4171618B8171090AC171AAE7B7
:102E3000303802400C020020D4000020A03B0100EA
:102E40000000002010B591EA030F48BF83F0004353
:102E500000F13E83841A71EB030C05D2121943EB87
:102E60000C03001B61EB0C01DFF824E14FEA115465
:102E7000A4EB135C1EEA430F18BF9EEA445F73D0B5
:102E800023EA0E03DCF1200E21EA045143F48013FF
:102E900032D322FA0CFE10EB0E0023FA0CFE41EBAB
:102EA0000E01CCF1200E03FA0EFE10EB0E0051F1D4
:102EB0000001B1F5801FCCF1200E32D201EB04519C
:102EC00012FA0EF2BDE8104058BF7047401C38BFE0
:102ED0005FEA420218BF7047002814BF20F00100CB
:102EE00041F100014FEA410313F5001F38BF70475D
:102EF000A1F1C04100F0DEBA012A43EB0302ACF1BC
:102F0000200CDCF11F0E32BF4FF0000E23FA0CF341
:102F100010EB030041EB0451B4EB115FD0D0A1EBF7
:102F2000045101F5801149085FEA300001EB0451BA
:102F30000ED350F1000038BF12FA0EFE08D1BDE8E2
:102F40001040C9E7401C38BF5FEA4202CAD1C3E75C
:102F5000BDE810404FEA410313F5001F38BF70472A
:102F6000A1F1C04100F0A6BA9EEA445F08D011EA80
:102F70005E0FBDE8104004BF01F000410020704723
:102F8000BDE8104070B500F047FA00BF64FBBE3EDC
:102F90000000E0FF2DE9C04130B4DFF8A0C23CEAF8
:102FA000111418BF3CEA131400F0EC8081EA030509
:102FB0001CEA111444EAD57418BF1CEA131500F07A
:102FC000C780A4EB05044FF0004545EAC12145EA5E
:102FD000C32341EA505143EA525304F17F749942AA
:102FE00004F500344FEAC0204FEAC22208BF9042E5
:102FF00000F09C804FEA13650FF24016765D4FEAB1
:10300000134506FB05F7C7F1807706FB07F74FEA84
:10301000D737A7FB03687642C8F58038A7FB06CEF2
:1030200038BFA8F1010807FB08E64FF0000EA6FB29
:10303000028CE6FB03CEDCF1000CCEF1004E38BF73
:10304000AEF1010EA6FB0C584FF000074FF0000543
:10305000E6FB0E87A1FB08C6A0FB07CE16EB0E060B
:1030600045F10005E1FB076515F1E04E7EBFA4F5D3
:1030700080345FEA46066D4116F1800745F1000590
:103080004FEA17274FEA066647EA0567A6F1DE46CC
:10309000B6F1805F4FEA15251FD9384624F0010CA0
:1030A00005EBC471BCF1FE6F01EB0C1102D8F0BC52
:1030B000BDE8008124425CBF01F5801E9EEAC47F0A
:1030C00002D4F0BCBDE80081244238D4F0BCA1F1A8
:1030D000C041BDE8004100F0EDB94FEAD22242EA1A
:1030E00043524FEAD323A7FB02864FEAD02040EA9F
:1030F000415007FB03661EEA0E0F4FEAD12105FB84
:10310000026658BFA6EB0056B6EB00564FEA520EC9
:103110004EEAC37E18EB0E0E56EB530EBDD518EBE0
:1031200002085E417F1C55F10005B6E74FF480159B
:103130004FF000074FF000064FF00008ADE7F0BC7D
:103140004FF0000001F1C04101F00041BDE80081F5
:1031500011EA0C1F0CEA131500D00CE013EA0C1F47
:1031600000F025804FF00000F0BC81EA030101F07F
:103170000041BDE80081F0BCBDE8004181EA0301E7
:1031800000F098B9F0BCBDE8004170B500F044F91A
:10319000097EFC3E00F007B881EA03014FF0000011
:1031A00001F00041704781EA030100F083B9F0BCEF
:1031B000BDE800414FF0000021497047FFFDFBF9D9
:1031C000F7F5F4F2F0EEEDEBE9E8E6E4E3E1E0DE5A
:1031D000DDDBDAD8D7D5D4D3D1D0CFCDCCCBCAC8CC
:1031E000C7C6C5C4C2C1C0BFBEBDBCBBBAB9B8B7F3
:1031F000B6B5B4B3B2B1B0AFAEADACABAAA9A8A8E6
:10320000A7A6A5A4A3A3A2A1A09F9F9E9D9C9C9BB3
:103210009A9999989797969595949393929191905E
:103220008F8F8E8E8D8C8C8B8B8A898988888787EF
:103230008685858484838382828181800000FF0764
:103240000000F87F4FEA1153A3F58063D3F11E030A
:10325000A8BFD3F1200C08DB4FF0004242EAC122A4
:1032600052EA505232FA03F0704709420BD4102B45
:10327000C4BF0020704703F5787CBCF1FF3F05D048
:103280004FF0FF3070474FF00000704770B500F00E
:10329000C3F800BF4992248000207047F0E7B0FADD
:1032A00080F310FA03F10AD0C3F11D0303F5806324
:1032B0004FEA41504FEA035202EBD12170474FF0E1
:1032C00000007047DFF848C170B51CEA111E1EBF30
:1032D0001CEA13159EEA0C0F95EA0C0F00F06F80A4
:1032E00081EA030423EA4C134EEAD47E21EA4C110E
:1032F00041F4801143F48013AE44A1FB024CA0FBC7
:103300000365AEF17F7E361955EB0C05A1FB034C2E
:103310004CF10003A0FB021C16EB0C06654153F1B7
:103320000003094218BF46F0010613F4007F0BD1D9
:103330004FEA03314FEA0530340341EA155140EAC0
:1033400016506FF003020AE04FEAC3214FEAC5208E
:10335000F40241EA555140EA56506FF0020202EB86
:103360002E4201EB025585EACE710AD05FEA440C89
:1033700018BF24F0004450F1000041F1000120EAA0
:10338000D47040F2FE7C624500D270BDA84214BFEA
:103390004FF080444FF04044002E08BF0024BEF19F
:1033A000806FA8BFA1F1C041BDE8704080F282806B
:1033B0004FF0000001F1C04101F0004170479EEA6A
:1033C0000C0F0CEA131518BF95EA0C0F06D04FF03E
:1033D000000081EA030E0EF0004170BD00F01CF801
:1033E0008900013E00F007B800F009B84FEA430C2D
:1033F0005FEA5C5C08D081EA030100F05BB84FEA49
:10340000410C5FEA5C5CF6D14FF000000149704767
:103410000000FF070000F87F0EF1020E2EF0030EF1
:103420005EF8046B364205D4012A43EB030515F51B
:10343000001F12D8012841EB010C1CF5001F0CD80D
:103440000ED14FEAD17C15F5001F0CEB4C0C0CF1A2
:10345000020C08BF4CEBD37C04E04FF0080C01E0F9
:103460004FEAD37C0CEB4C0526FA05F606F007066E
:10347000B6F1040C06D20EEB860CBDE870404CF0A1
:10348000010C6047DFE80CF0090B02024FF000412D
:103490004FF00000A1F5002170BD1946104601282B
:1034A00051EB010418BFD4F5001484BF002001F0D3
:1034B000004170BD0808A0F500114FEA31017047C6
:1034C00010B591EA030F48BF83F000433FF5C2AC4B
:1034D000841A71EB030C07D212198CF0004C43EBE9
:1034E0000C03001B61EB0C01DFF8A4E14FEA11545F
:1034F000A4EB135C1EEA430F18BF9EEA445F00F082
:10350000B08023EA6E03524221EA0451C3EB6E03FA
:1035100038BF5B1EDCF1200E25D322FA0CFE10EB27
:103520000E0043FA0CFE41EB0E01CCF1200E03FA23
:103530000EFE10EB0E0051F10001CCF1200E29D44B
:1035400012FA0EF201EB0451BDE8104058BF70476B
:10355000401C1CBFB2F1004F704700280CBF491C33
:1035600020F00100704712EB020E43EB030218BF7C
:103570004FF0010E4EEA4202ACF1200CDCF11E0EBF
:1035800054D943FA0CFE10EB0E0051F1FF31CCF18F
:103590001E0ED5D50EF1010E12FA0EFE404141EB82
:1035A000010101EB445C5FEA5C5C10D910EBDE705A
:1035B00001EB045138BFBEF1004FBDE8104018BF09
:1035C000704700280CBF491C20F00100704730D222
:1035D0004FEAD42C11F5001124F400641BD0B1FA89
:1035E00081F20B3AA41AA41ED2F12003914030FAC2
:1035F00003F31943904001EBCC71002C01EB045113
:10360000BDE81040A8BF704701F1C0414FF0000075
:1036100001F000417047B0FA80F310FA03F100D1D5
:1036200010BDE41A173C4805C90AE4E701EB045150
:1036300010BD491001EB0451BDE810404FEA3000C5
:1036400002E04FF0000170474A0008BF0042F8D086
:10365000B2F5001F28BF704701F000414FF0000095
:1036600070479EEA445F07D011EA5E0FBDE8104044
:1036700004BF002100207047BDE8104070B5FFF77F
:10368000CBFE00BF40DFF63E83F00041104670479E
:103690000000E0FF4FF04070E1EE100A70470006B6
:1036A00010160006101600000000000000000102C5
:1036B0000304060708090000D836000800000020AF
:1036C000D4000000C4010008AC370008D40000207A
:1036D000BC080000E00100080814130A0000000004
:1036E00000050000000001000000000000000000D4
:1036F00000000000000000000000000000000000CA
:103700000000000000000000940100005F000000C5
:1037100000000000000000000000000000000000A9
:103720000000000000000000000000000000000099
:103730000000000000000000000000000000000089
:103740000000000000000000000000000000000079
:103750000000000000000000000000000000000069
:103760000000000000000000000000000000000059
:103770000000000000000000000000000000000049
:103780000000000000000000000000000000000039
:103790000000000000000000000000000100000028
:0C37A00010000000000000000024F400F5
:040000050800018965
:00000001FF
