:020000040800F2
:100000006009002029020008B5250008AD25000878
:10001000B12500087D040008D12700080000000079
:10002000000000000000000000000000BD250008E6
:100030008D04000800000000B9250008C125000853
:10004000430200084302000843020008430200087C
:10005000430200084302000891040008AD040008B0
:10006000430200084302000843020008430200085C
:10007000430200084302000843020008430200084C
:10008000430200084302000843020008430200083C
:10009000430200084302000843020008C9040008A4
:1000A000430200084302000843020008430200081C
:1000B00043020008430200088926000843020008A2
:1000C00043020008430200084302000843020008FC
:1000D00043020008430200084302000843020008EC
:1000E00043020008430200084302000843020008DC
:1000F00043020008430200084302000843020008CC
:1001000043020008430200084302000843020008BB
:1001100043020008430200084302000843020008AB
:10012000810400084302000843020008430200085B
:10013000430200084302000843020008430200088B
:10014000430200084302000843020008430200087B
:10015000430200084302000843020008430200086B
:10016000430200084302000843020008430200085B
:100170004302000843020008430200080000000098
:10018000430200084302000800F002F800F03CF8C7
:100190000AA090E8000C82448344AAF10107DA45E2
:1001A00001D100F031F8AFF2090EBAE80F0013F0F8
:1001B000010F18BFFB1A43F00103184794420000D7
:1001C000B4420000103A24BF78C878C1FAD8520768
:1001D00024BF30C830C144BF04680C6070470000C1
:1001E0000023002400250026103A28BF78C1FBD840
:1001F000520728BF30C148BF0B6070471FB504F0DD
:10020000EDF81FBD10B510BD00F0BCF81146FFF7AA
:10021000F5FF02F0E1FA00F0DAF803B4FFF7F2FFBD
:1002200003BC00F0DDF8000009488047094800479A
:10023000FEE7FEE7FEE7FEE7FEE7FEE7FEE7FEE796
:10024000FEE7FEE704480549054A064B70470000F3
:10025000752600088901000860030020600900205D
:10026000600500206005002053EA020C00F0698060
:100270002DE9F04B4FF00006002B1FBFB3FA83F5BA
:1002800003FA05F424FA05F65E4012BF1643B2FAEB
:1002900082F502FA05F4C5F120051EBF22FA05FC1D
:1002A00044EA0C04203556EA044C4FEA144418BFC3
:1002B000641C4FF000084FF00009904271EB030CF2
:1002C00039D3002919BFB1FA81F701FA07F6B0FA5C
:1002D00080F700FA07F6C7F120071EBF20FA07FCD7
:1002E00046EA0C062037B6FBF4FCA7EB0507103FE7
:1002F00007F01F0BCBF120062CFA06F60CFA0BFBCD
:1003000044BFB3460026202FA4BF5E464FF0000B2B
:100310005BEA060C08BF4FF0010B19EB0B0948EB29
:100320000608ABFB027C06FB02CC0BFB03CCC01B1C
:1003300071EB0C01C1E70B46024641464846BDE859
:10034000F08B13B5084318BF4FF0FF300146AFF3F1
:100350000080BDE81C40704770477047704710B57B
:1003600000F008F8006810BD10B5044600F002F86F
:10037000046010BD004870473000002000487047FE
:10038000300000207546FFF7F9FFAE4605006946CC
:10039000534620F00700854618B020B5FFF752FFFE
:1003A000BDE820404FF000064FF000074FF0000876
:1003B0004FF0000BAC46ACE8C009ACE8C009ACE8B3
:1003C000C009ACE8C00921F007018D46704710B59F
:1003D0000446AFF300802046BDE81040FFF71DBF84
:1003E00001491820ABBEFEE726000200704700005E
:1003F0000146806B036C026C13F0500F08D0D206DC
:1004000048BF00F03DB9806BC26C0846104700BF82
:1004100042F40071016401688A6812F0405F01D003
:1004200000F02AB9027E002AFAD1CA6A12F4700FCB
:1004300002D08A685205F3D44A6822F020024A604A
:10044000016C21F480710164016CC90448BF00F0A3
:1004500013B9016C41F00101016400F00DB9000015
:10046000806B40210164416C41F00401416400F063
:1004700007B90000806B00F001B90000FEE7000042
:1004800040F2B020C2F2000000F0C4BC704700008F
:1004900040F29100C2F20000002140F20802017017
:1004A000C2F200020120117000F0ACBE40F29200D6
:1004B000C2F20000002140F208020170C2F2000204
:1004C0000220117000F09EBEB0B540F2004440F230
:1004D0000800C4F20204C2F20000002505702046A4
:1004E0004FF4807100F06EFF00281EBF40F29300B1
:1004F000C2F20000057020464FF4007100F062FF68
:1005000028B140F29400C2F20000002101704FF4C3
:10051000807000F077FE4FF40070BDE8B04000F04E
:1005200071BE0000EFF3108072B600BFFEE700005E
:1005300070B581B00022009290F83C20012A03D1CE
:100540000221084601B070BD0E6801220A2E80F813
:100550003C2009D3B2B25200D0F800E012FA86F281
:100560001E3A0EF10C0305E0D0F800E006EB46025F
:100570000EF110034FF0070C1D680CFA02F4A543AE
:100580001D608D681C6805FA02F222431A604968F2
:1005900006290FD801EB81014A1F71461F2351F82C
:1005A000345F934025EA03030B60B3B203FA02F20F
:1005B00014E000BF01EB81030C29B2B204D87146EC
:1005C00051F8304F233B03E0714651F82C4F413B2B
:1005D0001F259D4024EA05059A400D600B6842F2F4
:1005E000043CC4F2010C1A43ACF541739E450A6009
:1005F0003BD1122E06D1DCF8001041F48001CCF87A
:10060000001032E026F0010110292ED1DCF8001094
:10061000102E41F40001CCF8001026D140F2240144
:10062000C2F2000109684DF68362C4F21B32A1FBDD
:100630000212910C01EB8101490000910099A1B1D6
:10064000009901390091009979B10099013900911F
:10065000009951B1009901390091009929B100998F
:100660000139009100990029EAD1002180F83C105D
:10067000084601B070BD00007047000070470000E0
:1006800070470000002804BF0120704710B50446E1
:10069000006C00283ED0206CC00645D4206C41F28E
:1006A00002118843023042F204312064C4F2010195
:1006B000086820F4403008600A6894E809101A437A
:1006C000D4F810E00A604168012321F48071416090
:1006D0004168C0F6007341EA0E214160416821F093
:1006E00040714160416841EA0C014160816821F438
:1006F00000618160E168826811438160A16A82685B
:10070000994222F070628260826813D122F04051D7
:1007100019E000BF204600F065F80020606484F80E
:100720003C00206CC006B9D50120002184F83C10A3
:1007300010BD00BF11438160816821F0405181608C
:10074000E16A826811438160816821F00201816061
:100750008168227E94F8203041EA4201816041683C
:1007600083B141F40061416041684EF2000221F41E
:1007700060414160616ACFF6FF72436802EB41312C
:10078000194301E021F400614160C16A40F2000CAC
:1007900021F47001C162E2696169CFF6F07CC36A3D
:1007A0000CEB02521A43C262826822F40072826029
:1007B00094F83020836843EA42228260826822F4FF
:1007C00080628260826842EA8121816000206064E8
:1007D000216C012262F301012164002184F83C10A4
:1007E00010BD00002DE9F04186B0044642F200073A
:1007F0000068C4F201070026B8420596049603D0AB
:1008000006B0BDE8F08100BF43F630000096C4F2A8
:10081000020041690DF1040841F4807141614169B0
:10082000032501F48071009100990096016841F060
:1008300004010160016801F0040100910099009633
:10084000016841F001010160016801F001010091BE
:1008500000990096016841F002010160006841467C
:1008600000F00200009000983F20019007F56840DA
:10087000CDE9025600F0D2FCFF2001A961C107F5C5
:100880006040414600F0CAFC07F564404146CDE9AE
:100890000155039600F0C2FC40F2B02546F210402C
:1008A000C2F20005C4F202004FF48061C5E90006FF
:1008B00005F110004FF480524FF480434FF48077DD
:1008C0008EC04FF40030C5E908062846C5E9026627
:1008D00000F080FB002818BFFFF724FEA563AC637F
:1008E00006B0BDE8F0810000B0B582B0044600203B
:1008F000019094F83C00012802D1022002B0B0BD62
:1009000094460A460120216884F83C008868C007A4
:1009100029D188684DF6836540F00100886040F277
:100920002400C2F200000068C4F21B35A0FB0505DC
:10093000A80C00EB400001900198A0B1019801388B
:100940000190019878B1019801380190019850B157
:10095000019801380190019828B10198013801905F
:1009600001980028EAD18868C00503D5886820F47A
:10097000807088608D68206CED0709D140F0100010
:100980002064606C40F001006064002002B0B0BDE3
:1009900040F20175A84300F5807020644868400566
:1009A00004D5206C012565F30D302064256C0020F2
:1009B000ED044FF0000544BF656C25F00605656445
:1009C00084F83C00A06B40F2F13540F27543C0F66C
:1009D0000005C0F60003C0E90F5340F26143C0F6C2
:1009E0000003C3646FF022030B604B6842F20805FA
:1009F00043F080634B608B68C4F2010543F480735D
:100A00008B604C31634600F097FBD5F8FC122068F0
:100A1000C9060FD0A5F108018842B6D1286810F0A8
:100A2000405FB2D1286840F080402860002002B0CA
:100A3000B0BD00BF42F20001C4F20101884217D0EC
:100A400042F20021C4F2010188420DD042F20011AD
:100A5000C4F20101884298D1D5F8FC12C90607D02A
:100A600005F5FC71884290D1D5F8FC12C9068CD4EA
:100A7000816811F0405F7FF488AF816841F0804168
:100A80008160002002B0B0BD90F82020013A012A18
:100A900008D8006800F1140200201368194311609F
:100AA000704700BF00F1240201204FF48021136839
:100AB000194311607047000010B590F820E0D0F89D
:100AC00000C0AEF1010EBEF1010FDCF808E011D854
:100AD0001EF0E05F18D0CEF3016EBEF1030F1DD102
:100AE00000F1240101204FF400020B681A430A6050
:100AF00010BD00BF00F1240101204FF480220B68DB
:100B00001A430A6010BD00BF00F1240101204FF418
:100B100000120B681A430A6010BD00BF012000FAE2
:100B20000EF01860886828B14B68CC6844EAC303AB
:100B3000034303E00868CB6843EA40530CEB0E1014
:100B4000C0F880310B69C0F88431097D012905D1D5
:100B500000F5C2710B6843F480730B605168C0F8F4
:100B60008C11126800F5C071C0F8882100200122A4
:100B70000B681A430A6010BDB0B590F82020013A06
:100B8000012A2FD846F20060C4F20000026842F049
:100B900001020260026822F47C520260D1F814E083
:100BA000CC694A6A0368012C43EA022202600EF013
:100BB0001F024FF0010303FA02F2C3696FEA020C4D
:100BC00023EA0203C36113D02CBBC36803EA0C03FE
:100BD000C360CB688C8844EA034300EBCE042364F3
:100BE0000B4611E0416A41F4802141620120B0BD11
:100BF000C3681343C3600B688C8844EA034300EB6B
:100C0000CE04236401F10C038C681B8843EA04437F
:100C100000EBCE04636443688D6943EA0204D1F8B3
:100C200010E0096A002D08BF03EA0C044460436920
:100C3000BEF1000F43EA020408BF03EA0C040129D5
:100C4000446102D1C1691143C161016821F0010110
:100C500001600020B0BD0000B0B5C8B1044690F8F6
:100C6000200010B9204600F071F82068016841F0BA
:100C70000101016000F0B2FB054600BF2068416839
:100C8000C90707D100F0AAFB401B0B28F6D312E0DE
:100C90000120B0BD016821F00201016000F09EFB5F
:100CA000054600BF2068416889070DD500F096FB16
:100CB000401B0B28F6D3606A052140F400306062C7
:100CC000012084F82010B0BD217E0268012922F0A5
:100CD000800208BF80320260617E0268012922F032
:100CE000400208BF40320260A17E0268012922F062
:100CF000200208BF20320260E17E0268012922F052
:100D0000100218BF10320260217F0268012922F010
:100D1000080208BF08320260617F0268012922F0E0
:100D2000040208BF04320260D4E901C2D4E90335E9
:100D300061691A432A431143ACF101021143C161B5
:100D400000200121606284F82010B0BD80B586B01B
:100D5000016846F20040C4F20000814202D006B0B1
:100D600080BD00BF002143F630020191C4F20202AF
:100D7000136900F5CE3043F000731361136903F07B
:100D800000730193019B0191136843F00103136009
:100D9000126802F001020192019A4FF4C0520192CE
:100DA0000222CDE90221032104910921059101A923
:100DB00000F034FA06B080BDB0B5044690F82000CB
:100DC00001281DD1022084F820002068016821F04C
:100DD0000101016000F002FB054600BF2068406889
:100DE000C00713D000F0FAFA401B0B28F6D3606A54
:100DF00040F400306062052084F820000120B0BD7E
:100E0000606A40F4002060620120B0BD0020606292
:100E1000B0BD0000F0B581B004460020009040F263
:100E20002400C2F200000268D4E9166048F2B5134B
:100E300037680821C1F64E3381403942A2FB0325B1
:100E40000CD0226813685B0708D5136823F00403ED
:100E50001360B160616D41F0010161650121814064
:100E6000394208D022685269120604D5B160616D1A
:100E700041F00201616504218140394208D02268B5
:100E80001268920704D5B160616D41F0040161659B
:100E900010218140394217D020680268120713D50B
:100EA000B16002680168520308D4C90508D401681A
:100EB00021F008010160216C21B905E008033FD44D
:100EC000216C09B120468847E16D202000FA01F22B
:100ED0003A4241D020680368DB063DD5B26094F801
:100EE00035300268052B1BD122F0160202604269E0
:100EF00022F080024261226C0AB9A26C1AB1026827
:100F000022F0080202603F208840B060012084F88F
:100F10003500216D0020002984F8340052D157E0BB
:100F20000168520310D4C90512D4016821F01001E0
:100F30000160012084F83500002084F8340007E0C7
:100F4000A16C0029BED1BFE7080301D4616C00E0A9
:100F5000E16B09B120468847606DC8B3606DC0077A
:100F60002ED0052084F835002068A90A026822F0F6
:100F700001020260009A01328A4200921AD8026885
:100F8000D20717D0009A01328A42009212D8026822
:100F9000D2070FD0009A01328A4200920AD8026822
:100FA000D20707D0009A01328A42009202D8026822
:100FB000D207DFD1012084F83500002084F8340006
:100FC000E16C29B1204601B0BDE8F040084700BF00
:100FD00001B0F0BD2DE9F041044600F0FFF9ECB19D
:100FE0000546022084F835000020216884F834008A
:100FF000086820F00100086021680868C00711D067
:1010000000F0ECF9401B0528F6D903252023032026
:10101000636584F83550BDE8F08100BF0120BDE86C
:10102000F08100BF086848F23F02CFF21002D4E915
:10103000013500EA020C04F10C0898E8C10143EA0A
:101040000C032B431843D4E9072E30433843104395
:10105000626A40EA0E00042A40EA08031CD1206BB1
:10106000D4E90A2E40EA0E00184308604869BEF130
:10107000000F20F0030040EA020040F0040C11D001
:10108000B8F5005F36D0B8F1000F45D1022A46D03E
:10109000012A3BD032B942E00B60486920F00700DA
:1010A00040EA020C01F0F8004AF6AB221038CAF60A
:1010B000AA22A0FB02231A0944F24843C0F6000307
:1010C0009A5C40F2FF335F284FF03F00C1F814C034
:1010D00021EA030100FA02F088BF0431C4E91612C4
:1010E0008860002301250020636584F83550BDE841
:1010F000F08100BF032AD5D8012540230120DFE875
:1011000002F0030E030500BF82E700BFAEF1C0701E
:10111000B0FA80F0400904E0032A04D3C2D1CEF330
:1011200000600028BED0012540230120636584F8BB
:101130003550BDE8F081000070B590F834C0BCF1C6
:10114000010F46D04FF0010C80F834C0D0F858E0C1
:1011500090F835C0BCF1010F38D14FF0020C80F887
:1011600035C04FF0000CC0F854C0D0F800C08468FF
:10117000056CC06DDCF80060402C26F48026CCF8AD
:101180000060CCF804300B4604BF13460A463F21EA
:1011900001FA00F0CCF80830CCF80C20CEF80800AA
:1011A000DCF8000040F01600CCF800002DB1DCF8AF
:1011B000000040F00800CCF80000DCF8000040F02F
:1011C0000100CCF80000002070BD00BF002180F8B5
:1011D0003410022070BD0000B0B5044600F0FEF8E7
:1011E000054640F21C00C2F200000078611C18BFE6
:1011F000044400BF00F0F2F8401BA042FAD3B0BD97
:101200007047000043F61441C4F201010A6802422B
:1012100014BF08607047FFF7F3BF00002DE9F04FDF
:1012200082B000F13E4241F6004502F1FF77C4F280
:101230000205082243F6004E4FEAB726A84208BF2F
:101240000722C4F2010E072E38BF4FEAB72201254C
:10125000002600274FF00008009208E008F101087E
:101260000437B8F1100F06F1020600F0A7800C68F1
:1012700005FA08F914EA090FF0D0D1F804B00322F6
:101280000BF0030CACF10104B240012C6FEA020A2E
:1012900010D88268CC6802EA0A02B4402243826015
:1012A0004268CBF3001422EA090204FA08F422434C
:1012B000426005E0BCF1030F02D14FF0030C20E0C7
:1012C000C2688C6802EA0A02B4402243BCF1020FF1
:1012D000C26016D16FF0030202EA58020244D2F84B
:1012E00020C007F01C050F230C69AB402CEA030358
:1012F00004FA05F52B431362D1F804B001250BF075
:10130000030C02680CFA06F302EA0A021A431BF401
:10131000403F0260A2D0002243F644030192C4F28F
:1013200002031A684FF6084C42F480421A601A68A9
:10133000CFF6FF7C02F480420192019A28F003026A
:10134000724452F80C3007F00C050F24AC40A34354
:10135000009C04FA05F52B4342F80C30DEF8082017
:101360004B6842EA090543F60C4CDC0258BF22EAFE
:101370000905CEF80850C4F2010CDCF800209C02EC
:1013800042EA090558BF22EA0905CCF80050DEF808
:1013900004209C0342EA090558BF22EA0905CEF859
:1013A0000450DEF80020DB0342EA090558BF22EAB8
:1013B0000905CEF80050012550E700BF02B0BDE896
:1013C000F08F00000069084018BF0120704700003E
:1013D000002A08BF090481617047000040F25830BC
:1013E000C2F200000068704740F21C0040F2583121
:1013F000C2F20000C2F2000100780A6810440860DE
:101400007047000080B543F60040C4F20200016856
:1014100041F400710160016841F48061016001687C
:1014200041F480710160032000F088F80F2000F083
:1014300005F800F027F8002080BD000070B540F2EC
:101440001C06C2F2000640F224013278C2F200010A
:101450004FF47A730968B3FBF2F20446B1FBF2F180
:10146000084600F01BFB0F2C4FF0010508D838B9D7
:101470004FF0FF3021460022002500F033F8746061
:10148000284670BD82B0002043F640010190C4F2AE
:1014900002014A6842F480424A604A6802F480428B
:1014A0000192019A0090086840F080500860086836
:1014B00000F080500090009802B07047002848BFAC
:1014C0007047C1B200F01F00012202FA00F04EF294
:1014D0000012CEF2000242EAD10121F003010860BD
:1014E0007047000010B54EF60C5CCEF2000CDCF834
:1014F0000030C3F3022E8EF00704042C28BF04240E
:10150000BEF103034FF0FF3E0EFA04F438BF002390
:10151000A14399400EFA03F39A43114300F00F02DE
:1015200000F160430901043A03F564436244002872
:1015300048BF02F10C03197010BD00004EF60C51AB
:10154000CEF200010A684FF6FF031A4060F30A2248
:1015500042F0806040F0FD70086070472DE9F04176
:10156000002800F08B8043F60808C4F20208044605
:10157000D8F8F8030D4600F00700884207D288F833
:10158000F853D8F8F80300F00700A84276D1206895
:10159000810717D5410705D5D8F8001041F4E0516F
:1015A000C8F80010010705D5D8F8001041F46041D3
:1015B000C8F80010D8F80010A26821F0F00111431B
:1015C000C8F80010C0073FD1D8F8F80300F00700B2
:1015D000A84207D988F8F853D8F8F80300F00700B4
:1015E000A8424BD12068410707D5D8F80010E2681F
:1015F00021F4E0511143C8F80010000708D5D8F8CD
:101600000000216920F4604040EAC100C8F80000F1
:1016100000F054F8D8F8001044F23842C1F3031136
:10162000C0F60002515C40F2240220FA01F140F2BF
:101630002000C2F200000068C2F200021160FFF751
:10164000FDFE0020BDE8F0816068811E022907D2FE
:1016500058F8081C89015CBF0120BDE8F08111E049
:10166000012807D158F8081C89035CBF0120BDE898
:10167000F08107E058F8081C890703D40120BDE871
:10168000F08100BFD8F8001021F003010843C8F82A
:101690000000FFF7A3FE064641F28837D8F80000A5
:1016A000616800F00C00B0EB810F8DD0FFF796FE63
:1016B000801BB842F2D90320BDE8F08110B543F693
:1016C0000404C4F20204606800F00C0142F200401D
:1016D0000829C0F2F40007D0042918BF10BD41F258
:1016E0000020C0F27A0010BD216801F03F0221689D
:1016F00023684902C3F3881106D4A1FB000100232B
:10170000FEF7B2FD07E000BF41F20020C0F27A0010
:101710004843B0FBF2F021680222C1F3014102EB21
:101720004101B0FBF1F010BD2DE9F04182B000287D
:1017300068D00446007843F60006C007C4F20206EB
:101740000BD0B06800F00C00042840F09F80306897
:10175000800302D56068002854D0207880071AD50D
:10176000B06810F00C0F09D0B06800F00C00082829
:1017700040F0A6807068400200F1A28030688007C7
:1017800002D5E06801283DD13068216920F0F800D9
:1017900040EAC10030602078000737D42078400745
:1017A0004CD4A56955B3B06800F00C00082840F08F
:1017B000BB80012D26D07068E16900F480028A4266
:1017C00020D1216A00F03F028A421BD147F6C07146
:1017D000626A0140B1EB821F14D1A16A4FF6FF7318
:1017E000C903994300F44032A1F580318A4209D1FE
:1017F000E16A00F07060B0EB016F03D1002002B02D
:10180000BDE8F081012002B0BDE8F08160690028E8
:1018100040F20000C4F2472076D00121C0F8801EBB
:10182000FFF7DCFD054600BF706F8007B6D4FFF7F9
:10183000D5FD401B0228F7D9DDE000BF306C10F069
:1018400080580AD100200190306C40F08050306404
:10185000306C00F080500190019847F20007C4F20C
:1018600000073868C00541D4386840F4807038609B
:10187000FFF7B4FD054600BF3868C00536D4FFF752
:10188000ADFD401B0228F7D9B5E000BFB06800F0FD
:101890000C00082803D1706840023FF558AF60681B
:1018A000B0F5803F07D0B0F5A02F40F08D803068B4
:1018B00040F480203060306840F4803030608DE04B
:1018C000E068002852D00020C4F2472001210160C6
:1018D000FFF784FD054600BF306880073FF554AF31
:1018E000FFF77CFD401B0228F6D984E0A0680128A0
:1018F00005D005284ED1306F40F004003067306FBE
:1019000040F0010030674FE00021C0F8801EFFF773
:1019100065FD0546706F80077FF540AFFFF75EFD00
:10192000401B0228F6D966E00027C4F247270020B2
:101930003866FFF753FD022D05460BD13068800154
:101940005ED5FFF74BFD401B02284FF00300F5D991
:1019500055E700BF306880017FF550AFFFF73EFDCF
:10196000401B02284FF00300F4D948E70020C4F2DE
:10197000472000210160FFF731FD054630688007F0
:101980007FF509AFFFF72AFD401B02284FF0030047
:10199000F4D934E7316F002821F001013167316F4C
:1019A00021F0040131674DD0FFF718FD054641F2E3
:1019B000883700BF306F800756D4FFF70FFD401BFC
:1019C000B842F7D917E000BF3168002821F4803110
:1019D0003160316821F4802131604FD0FFF7FEFC87
:1019E000054600BF306880033FF5B7AEFFF7F6FC51
:1019F000401B6428F6D9032002B0BDE8F08100BF87
:101A000004F11C052FCD084340EA8210D9034FF69C
:101A1000FF729143A1F5803140EA05600843706090
:101A200001203866FFF7DAFC044600BF3068800109
:101A30003FF5E4AEFFF7D2FC001B02284FF0030095
:101A4000F4D9DCE6FFF7CAFC054641F2883700BF4F
:101A5000306F800708D5FFF7C1FC401BB8424FF03C
:101A60000300F5D9CBE600BFB8F1000F7FF499AEC3
:101A7000306C20F08050306493E600BFFFF7AEFC7E
:101A8000054600BF306880037FF567AEFFF7A6FC10
:101A9000401B64284FF00300F4D9B0E6411E00203B
:101AA000B0EB116F1CBF012070474EF21002CEF256
:101AB000000251604EF62351CEF20001F0230B706C
:101AC0000721906011607047704700007047000068
:101AD00010B590F83C20012A4FF0020251D080F856
:101AE0003D200268D2F804E0D2F808C00C682EF05D
:101AF0007003234341F2FF74C4F20004A242536016
:101B00000EDC40F2FF73C4F200039A4216DCB2F11D
:101B1000804F2BD040F20043C4F2000324E000BF0A
:101B200040F2FF33C4F201039A4213DC41F6000392
:101B3000C4F200039A4219D0002313E040F60003D8
:101B4000C4F200039A4211D040F60043C4F20003ED
:101B50000AE000BF44F20003C4F201039A4205D038
:101B600040F20043C4F201039A4204D149682CF0C8
:101B70008003194391600121002280F83D1080F814
:101B80003C20104610BD0000002804BF0120704713
:101B900010B5044690F83D0028B9002084F83C00B8
:101BA000204600F01FF8022084F83D002068211D27
:101BB00000F070FD012084F8460084F83E0084F8AF
:101BC0003F0084F8400084F8410084F8420084F823
:101BD000430084F8440084F8450084F83D00002068
:101BE00010BD000080B582B0006840F60001C4F26C
:101BF000000188421CBF02B080BD0020019043F666
:101C00004000C4F202000168002241F004010160BA
:101C10000068002100F00400019001981E20FFF7E9
:101C200061FC1E2002B0BDE88040FFF747BC000009
:101C300090F83D1001291CBF01207047022180F857
:101C40003D10006841F2FF72C168C4F20002904288
:101C500041F00101C1600DDC40F2FF71C4F20001EE
:101C6000884215DCB0F1804F2AD040F20041C4F226
:101C7000000123E040F2FF31C4F20101884213DC8D
:101C800041F60001C4F20001884219D0002113E09E
:101C900040F60001C4F20001884211D040F6004134
:101CA000C4F200010AE000BF44F20001C4F20101E5
:101CB000884205D040F20041C4F20101884206D1B9
:101CC000816801F00701062904BF00207047016800
:101CD00041F00101016000207047000080B590F8DC
:101CE0003C20012A4FF0020200F0C28080F83D2023
:101CF000D0F800C04FF67772DCF8083023EA020211
:101D0000CCF808200B684F2B28DC1F2B44DD202B40
:101D100045D0302B43D0402B40F0AC80D1F804E0CC
:101D2000C968DCF82030DCF8202022F00102CCF871
:101D30002020DCF8182022F0F00242EA011123F002
:101D40000A0242EA0E02CCF81810CCF82020DCF887
:101D5000081041F0470121F0300180E06F2B27DDB2
:101D6000B3F5005F48D0B3F5805F7AD0702B40F0B8
:101D70008180D1E901E3C968DCF8082043EA0E0359
:101D800022F47F4243EA01211143CCF80810DCF829
:101D9000081041F0770162E00BB1102B6AD1DCF83A
:101DA000081021F07001194341F0070157E000BF0E
:101DB000502B35D0602B5DD1D1F804E0C968DCF838
:101DC000203023F01003CCF82030DCF81830DCF899
:101DD000202023F4704322F0A00243EA013142EABA
:101DE0000E12CCF81810CCF82020DCF8081041F0C6
:101DF000670121F0100132E0D1E901E3C968DCF8A4
:101E0000082043EA0E0322F47F4243EA01211143F2
:101E1000CCF80810DCF8081041F480411FE000BF46
:101E2000D1F804E0C968DCF82030DCF8202022F08A
:101E30000102CCF82020DCF8182022F0F00242EA5F
:101E4000011123F00A0242EA0E02CCF81810CCF875
:101E50002020DCF8081041F0570121F02001CCF8D7
:101E600008100022012180F83D10002180F83C106C
:101E7000104680BD0122F5E77047000010B50168EB
:101E800004460869800744BFC8685FEA807039D497
:101E90000869400744BFC8685FEA40703ED40869DB
:101EA000000744BFC8685FEA007045D40869C006EF
:101EB00044BFC8685FEAC0604AD40869C0071CBF55
:101EC000C8685FEAC07051D10869000644BFC8689D
:101ED0005FEA006052D40869400644BFC8685FEA00
:101EE000406053D40869800646BFC8685FEA8060D6
:101EF00010BD6FF0200220460A61BDE81040FFF7D8
:101F0000E5BD00BF6FF002000861012020778869FD
:101F1000800743D02046FFF7AFFF45E06FF0040095
:101F2000086102202077886910F4407F40D0204665
:101F3000FFF7A2FF42E000BF6FF008000861042035
:101F40002077C86980073DD02046FFF795FF3FE026
:101F50006FF01000086108202077C86910F4407FF6
:101F60003AD02046FFF788FF3CE000BF6FF0010049
:101F70000861204600F040F82168A5E76FF0800076
:101F800008612046FFF7A0FD2168A4E76FF040003C
:101F90000861204600F008FB2168A3E7204600F016
:101FA00025F8204600F024F82168002020776FE70C
:101FB000204600F01BF8204600F01AF821680020A7
:101FC00020776CE7204600F011F8204600F010F86A
:101FD00021680020207769E7204600F007F82046B6
:101FE00000F006F821680020207766E770470000BF
:101FF00070470000000000002DE9F04381B02DED96
:10200000028B40F6004840F29004C4F202080168D6
:10201000C2F20004A8F50132A08940F20009914201
:10202000C2F2000967D1E189228A0131E181511CA4
:10203000628A2182511C228F6182511C8AB2013036
:10204000B2F57A7FA081218704D1618F0131618748
:1020500000212187618999F80530E26B99420FD2FE
:10206000237840F2E817C2F2000757F82330013115
:102070001A44E263618199F80810228E09BB15E0C9
:10208000B2FBF3F1227840F22823C2F2000343F8B6
:10209000221000216181E16322780F2A9CBF217800
:1020A0000131217099F80810228E51B9618E0132E8
:1020B00001316186A18E22860131A186E18E013136
:1020C000E186B9F80A1092B28A4284BF0022C4E9BC
:1020D0001C22628E8A4200F24382A28E8A4200F261
:1020E0004A82E28E8A4206D940F20811C2F2000109
:1020F0000022C1E9042299F8011080B2884280F0E0
:10210000BB81E08999F80210884280F0D781208A4B
:1021100099F80310884280F0F381608A99F80410DE
:1021200088421BD3B9F8182040F20811C2F200010E
:10213000062041F8582F89F80000086140F2781015
:10214000C2F200000025203004F1440204F14003F3
:10215000C1E902550D75FEF7AFFC658240460121CD
:10216000FFF730F9012858D16078002855D1208E2A
:1021700001F0F6FD9FEDF40B53EC102B01F014FC75
:102180009FEDF30B02460B4651EC100B01F00CFCDB
:10219000064699F8060099F807500F4601F0E0FD51
:1021A00002460B463046394601F0FEFB9FEDEA0B36
:1021B00053EC102B01F060FE677941EC100B01220B
:1021C00040F2081662700022C2F20006AF42228678
:1021D00086ED060B0BD296ED0E0B53EC102B01F097
:1021E0002FFB41EC100B013786ED0E0B6771F8B237
:1021F000A84212D196ED0E8B284601F0B1FD0246A1
:102200000B4651EC180B01F0CFFB41EC100B0020FA
:1022100084ED1C0BC6E90E00607140460221FFF7F9
:10222000D1F8012858D1A078002855D1608E01F04E
:1022300097FD9FEDD70B53EC102B01F0B5FB9FEDF5
:10224000D60B02460B4651EC100B01F0ADFB0646D7
:1022500099F8060099F807500F4601F081FD0246F3
:102260000B463046394601F09FFB9FEDCD0B53ECFA
:10227000102B01F001FEA77941EC100B012240F276
:102280000816A2700022C2F20006AF42628686EDF6
:10229000080B0BD296ED100B53EC102B01F0D0FA7B
:1022A00041EC100B013786ED100BA771F8B2A84274
:1022B00012D196ED108B284601F052FD02460B46D6
:1022C00051EC180B01F070FB41EC100B002084ED79
:1022D0001C0BC6E91000A07140460421FFF772F8FC
:1022E00001285ED1E07800285BD1A08E01F038FD96
:1022F0009FEDA70B53EC102B01F056FB9FEDA60BA7
:1023000002460B4651EC100B01F04EFB064699F8C5
:10231000060099F807500F4601F022FD02460B46D1
:102320003046394601F040FB9FED9D0B53EC102BDE
:1023300001F0A2FD01F0CEFCE679A0840120E0705E
:102340000020AE42A08613D240F20817C2F2000766
:1023500097ED0A0B97ED121B51EC100B53EC112B60
:1023600001F06EFA41EC100B013687ED120BE671AD
:10237000F0B2A84215D140F20816C2F2000696ED5E
:10238000128B284601F0ECFC02460B4651EC180B70
:1023900001F00AFB01F09EFCA0840020C6E91200B7
:1023A000E07140460821FFF70DF801285ED1207941
:1023B00000285BD1E08E01F0D3FC9FED750B53EC50
:1023C000102B01F0F1FA9FED740B02460B4651EC15
:1023D000100B01F0E9FA054699F8060099F8077024
:1023E0000E4601F0BDFC02460B462846314601F080
:1023F000DBFA9FED6B0B53EC102B01F03DFD01F070
:1024000069FC257A6084012020710020BD42E086AD
:1024100013D240F20816C2F2000696ED0C0B96EDB0
:10242000141B51EC100B53EC112B01F009FA41EC89
:10243000100B013586ED140B2572E8B2B84215D1A8
:1024400040F20815C2F2000595ED148B384601F0F4
:1024500087FC02460B4651EC180B01F0A5FA01F07F
:1024600039FC60840020C5E914002072BDEC028BA9
:1024700001B0BDE8F08300BFB9F80C2040F20811AC
:10248000C2F20001082041F8582F89F800000861C5
:1024900040F27810C2F200000025203004F1510211
:1024A00004F14003C1E902550D75FEF705FBA58156
:1024B000E08999F802108842FFF429AEB9F810209B
:1024C00040F20811C2F20001082041F8582F89F8A3
:1024D0000000086140F27810C2F2000000252030B0
:1024E00004F1590204F14003C1E902550D75FEF7EC
:1024F000E3FAE581208A99F803108842FFF40DAED3
:10250000B9F8142040F20811C2F20001072041F886
:10251000582F89F80000086140F27810C2F20000DC
:102520000025203004F14A0204F14003C1E90255BC
:102530000D75FEF7C1FA2582608A99F80410884269
:10254000BFF4F0AD0AE600BF0000000000408F407D
:10255000000000000000F03F0000000000004E40BE
:1025600040F20812C2F200020023C2E90033A28E38
:102570008A427FF6B6AD40F20812C2F20002002392
:10258000C2E90233E28E8A423FF6AEADB3E500BF48
:102590000000000000408F40000000000000F03FFD
:1025A0000000000000004E4070470000FEE7000001
:1025B000FEE70000FEE700007047000070470000E3
:1025C000FEF712BFB0B592B0002443F64000CDE94B
:1025D0000A44CDE908440594CDE90344CDE901441A
:1025E0000094C4F202000168022541F080510160AC
:1025F000006800F080500090009847F200000094BE
:10260000C4F20000016841F4804101600068A82123
:1026100000F4804000900098012006904FF4803034
:1026200007904FF480000D9004200E90119006A8A2
:102630000C95CDE90F15FFF777F828B1EFF310806F
:1026400072B600BFFEE700BF0F20CDE901054FF4D1
:10265000C05004904FF48050059001A805210394C8
:10266000FEF77CFF20B1EFF3108072B6FEE700BFEB
:1026700012B0B0BD4EF68850CEF20000016841F4B1
:10268000700101607047000040F21030C2F200009B
:10269000FFF7F4BB10B540F6FF3E0368C4F2000E2E
:1026A00040F2004C7045C4F2010C27DCB0F1804FC1
:1026B00031D040F20042C4F2000290422BD040F6EA
:1026C0000002C4F20002904225D041F6FF72C4F22B
:1026D0000002904229DC70453CDCB0F1804F5FD0B5
:1026E00040F20042C4F20002904259D040F600028B
:1026F000C4F20002904253D056E000BF40F60042C0
:10270000C4F20002904206D0604504D00022C4F218
:1027100001029042D9D14A6823F07003134341F675
:10272000FF72C4F200029042D5DD43F6FF72C4F29C
:102730000102904222DC42F20002C4F20002904206
:102740002ED00022C4F20102904229D0604527D049
:102750002AE000BF40F60042C4F2000290421FD0BF
:1027600041F60002C4F20002904219D041F6004244
:10277000C4F20002904213D016E000BF44F20002FF
:10278000C4F2010290420BD044F60002C4F20102EE
:10279000904205D044F20042C4F20102904203D1BB
:1027A000CA6823F44073134323F080024B69D1F8C5
:1027B00000E08C681A430260C46240F48062C0F892
:1027C00028E0624504BF096901630121416110BD30
:1027D000FEE700000000000094B043F6300840F629
:1027E0000049C4F20208C4F20209FEF70BFEFFF72B
:1027F000E9FE4FF0000BCDF844B0CDF848B0D8F862
:10280000000009F5806540F00400C8F80000D8F821
:1028100000004FF4105100F0040012901298CDF80F
:1028200048B0D8F80000002240F08000C8F800004E
:10283000D8F8000000F0800012901298CDF848B04F
:10284000D8F8000040F00100C8F80000D8F80000F7
:1028500000F0010012901298CDF848B0D8F80000AE
:1028600040F00200C8F80000D8F8000000F00200B4
:1028700012901298CDF848B0D8F8000040F010003F
:10288000C8F80000D8F8000000F01000129012986C
:10289000CDF848B0D8F8000040F00800C8F80000B3
:1028A000D8F8000000F00800129012982846FEF7B1
:1028B0008FFD28464FF4584101220127FEF788FD7D
:1028C000A9F5006630464FF40C410122FEF780FD69
:1028D00048464FF603710122FEF77AFDA9F5806A9A
:1028E00050464FF470710122FEF772FDA9F5406069
:1028F0004FF4E06101220C90FEF76AFD48464C213E
:102900000022FEF765FD4FF410500DA981E8810803
:102910000DAF28463946CDF840B0FEF77FFC4FF4A6
:1029200058400D90112428463946CDE90E4BCDF87C
:1029300040B0FEF773FC4FF440600DA981E8110828
:1029400030463946CDF840B0FEF768FC4FF40050F1
:102950000D900220CDE90E0B03201090092011905C
:1029600030463946FEF75AFC4FF400400D900124E2
:1029700030463946CDE90E4BCDF840B0FEF74EFC5F
:102980004FF64F700DA981E8110848463946CDF839
:1029900040B0FEF743FC4FF47070CDE90D04504693
:1029A00039460124CDE90FBBFEF738FC4FF4E06057
:1029B0000DA981E811080C983946CDF840B0FEF712
:1029C0002DFC4FF440700D904FF48814304639467A
:1029D000CDE90E4BFEF722FC03200DA981E811087A
:1029E00028463946FEF71AFC062001210022FEF790
:1029F00079FD0620FEF762FD072001210022072451
:102A0000FEF770FD0720FEF759FD17200121002277
:102A1000FEF768FD1720FEF751FD40F2781AC2F26A
:102A2000000AA9F5D431504640F8201F4FF08041EC
:102A30004FF400324FF48013C0E90141C0E903B202
:102A4000C0E9053BA0F81CB0FEF706F920B1EFF392
:102A5000108072B6FEE700BF4FF6FF70514641F896
:102A6000480F0120C1E907000E204862A1F12800AB
:102A7000C1E901BBC1E903BBC1E905BBFEF77CF8B5
:102A800020B1EFF3108072B6FEE700BF0AF1200517
:102A90002846FEF791F928B1EFF3108072B600BF17
:102AA000FEE700BF28460321FDF7EEFF20B1EFF35C
:102AB000108072B6FEE700BF00250D95D8F8000023
:102AC000012340F48000C8F80000D8F80000C0F6E8
:102AD000007300F480000D900D9840F26820C2F25F
:102AE0000000A9F56C410124C0E90A3510231095B6
:102AF0004FF48032047680F82050C36180F8304073
:102B000080E82600C0E903544461FDF7BBFD28B10D
:102B1000EFF3108072B600BFFEE700BF04200F90F5
:102B200040F26820C2F200000DA9CDE90D54FDF776
:102B3000FFFC28B1EFF3108072B600BFFEE700BFC4
:102B400001200D9040F268200224C2F200000DA97D
:102B50000E94FDF7EDFC28B1EFF3108072B600BFC4
:102B6000FEE700BF40F268200D940324C2F200008B
:102B70000DA90E94FDF7DCFC20B1EFF3108072B6C6
:102B8000FEE700BF40F268200D940424C2F200006A
:102B90000DA90E94FDF7CCFC20B1EFF3108072B6B6
:102BA000FEE700BF40F268200D940524C2F2000049
:102BB0000DA90E94FDF7BCFC20B1EFF3108072B6A6
:102BC000FEE700BF40F268200D940624C2F2000028
:102BD0000DA9CB460E94FDF7ABFC18B1EFF31080B6
:102BE00072B6FEE740F268200D940724C2F200009E
:102BF0000DA90E94FDF79CFC20B1EFF3108072B686
:102C0000FEE700BF40F268200D940824C2F20000E5
:102C10000DA90E94FDF78CFC20B1EFF3108072B675
:102C2000FEE700BF40F268200D940924C2F20000C4
:102C30000DA90E94FDF77CFC20B1EFF3108072B665
:102C4000FEE700BF40F268200D940A24C2F20000A3
:102C50000DA90E94FDF76CFC20B1EFF3108072B655
:102C6000FEE700BF40F268200D940B24C2F2000082
:102C70000DA90E94FDF75CFC20B1EFF3108072B645
:102C8000FEE700BF40F268200D940C24C2F2000061
:102C90000DA90E94FDF74CFC20B1EFF3108072B635
:102CA000FEE700BF40F268200D940D24C2F2000040
:102CB0000DA90E94FDF73CFC20B1EFF3108072B625
:102CC000FEE700BF40F268200D940E24C2F200001F
:102CD0000DA90E94FDF72CFC20B1EFF3108072B615
:102CE000FEE700BF40F268200D940F24C2F20000FE
:102CF0000DA90E94FDF71CFC20B1EFF3108072B605
:102D0000FEE700BF10200E9040F26820C2F20000E3
:102D10000DA90D94FDF70CFC20B1EFF3108072B6F5
:102D2000FEE700BF40F210300021C2F20000012790
:102D30001091CDE90E11CDE91211ABF5013245F23A
:102D40000723C0E9021701618021C0E900238161E6
:102D5000FEF71AFF20B1EFF3108072B6FEE700BF56
:102D60004FF480500D9040F21030C2F200000DA9D7
:102D7000FEF7B4FF20B1EFF3108072B6FEE700BF9C
:102D800040F21030C2F2000012A9FEF7A1FE18B105
:102D9000EFF3108072B6FEE7382000210022FEF724
:102DA000A1FB3820FEF78AFB40F21030C2F200008F
:102DB000FEF73EFF40F2682040F2E811C2F2000048
:102DC000C2F200011022FDF78FFD9FEDC30B9FEDB6
:102DD000C41B51EC100B9FEDC40BCDE9031051EC5B
:102DE000110B9FEDC31BCDE9011051EC100B9FEDB2
:102DF000C28B9FEDC39B9FEDC4AB9FEDC5BB9FED09
:102E0000C6CBCDE90B1051EC110BCDE909102DE02B
:102E100040F29002C2F20002107D918C82F84A00CA
:102E2000080A82F84C004FEA192082F84E004FEA57
:102E3000182082F85000069882F84B1082F844005F
:102E4000000A82F84500079882F84D9082F8460003
:102E5000000A82F84700089882F84F8082F84800FC
:102E6000000A82F849000120FEF7B6F940F2282155
:102E7000C2F20001086841F2BA325043000BAAF8CE
:102E8000000048685043000BAAF8020088685043CD
:102E9000000BAAF80400C8685043000BAAF806000B
:102EA00008695043000BAAF8080048695043000B1A
:102EB000AAF80A0088695043000BAAF80C00C869F8
:102EC0005043000BAAF80E00086A5043000BAAF802
:102ED0001000486A5043000BAAF81200886A504359
:102EE000000BAAF81400C86A5043000BAAF8160099
:102EF000086B5043000BAAF81800486B5043000BB6
:102F0000AAF81A00886B5043000BAAF81C00C86B83
:102F10005043000BAAF81E00BAF8000000F020FF92
:102F2000DDE9033200F0A8FFDDE9013200F088FCA2
:102F300000F0D0FE40F29008C2F20008A8F8140099
:102F4000BAF80200A0F23C60A8F81600BAF8040033
:102F5000A8F81800BAF8100000F002FF054640F289
:102F60002800C2F2000000880E4600F0F9FE044678
:102F7000BAF810000F4600F0F3FE02460B4620465A
:102F8000394601F013F9DDE90B3200F00DFD024680
:102F90000B462846314600F007FDDDE9093200F016
:102FA0004FFC00F097FEA8F8620000F0D9FE41EC5B
:102FB000100B00F035F951EC100B53EC182BCDE948
:102FC000072300F059FF53EC192BCDE9052300F03E
:102FD00037FC41EC100B00F007FB51EC100B00F03C
:102FE00079FEA8F81A00BAF8120000F0B9FE54EC05
:102FF0001A6B3246234600F03FFF57EC1B9B4A46B4
:103000003B4600F01DFC00F065FEA8F81C00BAF875
:10301000140000F0A5FE3246234600F02DFF4A467C
:103020003B4600F00DFC00F055FEA8F81E00BAF873
:10303000160000F095FE064640F22800C2F200009D
:1030400000880C4600F08CFE0746BAF816000D46C4
:1030500000F086FE02460B463846294601F0A6F8E7
:10306000DDE90B3200F0A0FC02460B46304621465B
:1030700000F09AFCDDE9093200F0E2FB00F02AFEE4
:10308000A8F8640000F06CFE41EC100B00F0C8F8EA
:10309000DDE9072351EC100B00F0EEFEDDE905231E
:1030A00000F0CEFB41EC100B00F09EFA51EC100B3F
:1030B00000F010FEA8F8200058460421FEF782F91F
:1030C00070B358460421FEF77DF901282FD1002066
:1030D00028E000BF00BF00BFEC51B81E85EBA13F48
:1030E00000000000008031C00000000000C0A240CD
:1030F0000000000000408FC052B81E85EB9140C018
:103100009A999999992571409A9999999999993F7C
:1031100000000000000029C00000000000409F40A7
:10312000BAF80C0040F29001C2F2000148845846FF
:103130000821FEF747F938B158460821FEF742F951
:10314000012808D1002001E0BAF80E0040F29001F9
:10315000C2F200018884BAF8069040F29002C2F2EE
:103160000002A2F82690BAF8188054EC1C5BA2F872
:103170002880BAF81A0006905085BAF81C0007900B
:103180009085BAF81E3092F82000D16982F851007B
:10319000907E089382F852004FEA3140518CC2F879
:1031A0005300A2F8571040F20811D08AC2F2000171
:1031B00091ED000BA2F85900108B56EC107BD385D3
:1031C000A2F85B00384631462A46234601F0F1F862
:1031D00048B93846314600F07DFD40F29001C2F218
:1031E0000001A1F85D0040F29000C2F2000090EDF5
:1031F0001C0B2A4656EC107B38463146234601F01C
:10320000D8F800287FF404AE3846314600F062FD5D
:1032100040F29001C2F20001A1F85F00F8E5000061
:1032200070B5D94B00242DED020B2DED108BDDE98F
:103230001010984205DA20F000429A4201D809D1D4
:1032400041B19DED100BBDEC108B02B0BDE870409C
:1032500000F0CEBAB0F5801F26DA11430BD000285B
:1032600013DA0120FDF780F8BDEC108B02B0BDE849
:10327000704000F0C9BA0220FDF776F800F0A0FA1D
:1032800051EC100B00F0D0FA9EE06FF035049FED8A
:10329000C00B53EC102B9DED100B51EC100B00F0FC
:1032A000EBFDCDE91001084604EB2051C0F31304F7
:1032B000B948A1F2FF31204400F4801080F07F6211
:1032C00082F04052224301EB20559FEDB50B119245
:1032D00053EC102B9DED100B51EC100B00F066FF22
:1032E00041EC180BA01CC0F313009FEDAFDB9FED6A
:1032F000B0EBB14E7E4403286CD296ED000B51EC3E
:10330000180B53EC102B00F0A9FC1DD1002D01BFB0
:1033100096ED000BBDEC108B02B070BD284600F09E
:1033200008FD41EC180B53EC1D2B00F0A5FD41EC02
:10333000190B53EC1E2B51EC180B00F09DFD53ECB8
:10334000192B00F07DFA3FE09FED9D0B51EC180B1F
:1033500053EC102B00F090FD9FED9B1B53EC112BB9
:1033600000F018FF41EC190B53EC182B51EC180B23
:1033700000F082FD53EC192B00F07EFD41EC190B9F
:10338000002D04BF53EC192B51EC180B1AD0284612
:1033900000F0CFFC41EC1A0B53EC1D2B00F06CFD40
:1033A00053EC192B00F0F6FE53EC182B00F0FEFE48
:1033B00041EC180B53EC1E2B51EC1A0B00F05CFD8A
:1033C00053EC182B00F0F2FEBDEC108B02B041EC78
:1033D000100B70BD9FED7E0B51EC180B53EC102BB6
:1033E00000F02EFA41EC100B51EC180B53EC102BA3
:1033F00000F0DAFA41EC190B284600F09AFC41EC97
:103400001B0B53EC192B51EC190B00F035FD41EC63
:103410001A0B714853EC1A2B261851EC1A0B00F0BA
:103420002BFD41EC1F0B6D48C4F1510404F5D7246A
:10343000B0EE4F0AF0EE6F0A0321784400F044F931
:1034400053EC1F2B51EC100B00F016FD41EC1C0B44
:103450006348B0EE4F0AF0EE6F0A0421784400F0A2
:1034600033F953EC1A2B51EC100B00F005FD3443EB
:1034700053EC1C2B00F0E4F941EC1C0B002C4CDD50
:103480009FED510B51EC180B53EC102B00F0F4FC9A
:1034900053EC182B00F0F0FC41EC1A0B55B353EC35
:1034A0001D2B51EC1B0B00F0E7FC41EC1D0B53EC0A
:1034B0001C2B51EC1A0B00F0C3F953EC192B00F044
:1034C000DBFC53EC1D2B00F0BBF953EC1A2B00F086
:1034D00061FE53EC182B00F069FE41EC180B53EC25
:1034E0001E2B51EC1B0B00F0C7FC53EC182B00F00B
:1034F0005DFE69E753EC1C2B51EC1A0B00F0A0F9B0
:1035000053EC192B00F0B8FC53EC1A2B00F042FEE0
:1035100053EC182B00F03EFE56E735B353EC1D2B51
:1035200051EC1B0B00F0A8FC41EC1A0B53EC1C2BCC
:1035300051EC180B00F03AFE53EC192B00F09CFCF8
:1035400053EC1A2B00F032FE53EC182B00F02EFE39
:1035500041EC180B53EC1E2B51EC1B0B00F08CFCB8
:1035600053EC182B00F022FE2EE753EC1C2B51ECF1
:10357000180B00F01BFE53EC192B00F07DFC53ECF4
:10358000182B00F007FE1FE70000F07F000000008E
:103590000000000000005043645F090000000000CC
:1035A000000000000000F03F763C7935EF39EA3D3D
:1035B0000000E0FE422EE63F38110000000000004F
:1035C000555555555555D53F000000000000E03FCA
:1035D000000000000000004086EBF9FFBA0F000079
:1035E000B00F00000000000010B52DED020B2DED16
:1035F000088B84B09DED0C0B51EC100B00F070FDAE
:1036000041EC180B9DED0C0B53EC182B51EC100BEF
:1036100000F0CCFD41EC190B0D989FED290B10F03B
:10362000004F53EC102B51EC190B9FED21AB9FED8C
:1036300022BB0ED000F0E4FB0ED953EC1B2B51EC57
:10364000190B00F017FD1CD214E000BF41EC180B61
:1036500017E000F0D5FB06D253EC1A2B51EC180BF7
:1036600000F0A4FDF2E753EC1B2B51EC190B00F01A
:1036700001FD06D853EC1A2B51EC180B00F0E0F8C2
:10368000E4E78DED028B9DED0C0B18EE901A10EE19
:10369000900A8DED000B61F31E0003909DED020B6F
:1036A00004B0BDEC088B02B010BD000000000000AB
:1036B000000000000000F03F000000000000E03FBC
:1036C000000000000000E0BF70B504462DED028B45
:1036D0004D1E00EBC500B0EE408AF0EE608A90ED22
:1036E000000B35F0060017D053EC182B51EC100BE3
:1036F00000F0C2FB41EC100B6D1E04EBC50090ED19
:10370000001B51EC100B53EC112B00F099F841EC1D
:10371000100B35F00600E7D1022D36D0042D1CD059
:10372000062D1CBFBDEC028B70BD53EC182B51EC69
:10373000100B00F0A1FB94ED0A1B53EC112B00F0D1
:103740007FF853EC182B00F097FB94ED081B53EC1B
:10375000112B00F075F841EC100B53EC182B51ECC9
:10376000100B00F089FB94ED061B53EC112B00F0BD
:1037700067F853EC182B00F07FFB94ED040B53EC2F
:10378000102B00F05DF841EC100B53EC182B51ECB2
:10379000100B00F071FB94ED021B53EC112B00F0A9
:1037A0004FF853EC182B00F067FB94ED001B53EC23
:1037B000112B00F045F8BDEC028B41EC100B70BDF5
:1037C0009FED070B10B553EC102B9FED070B51EC41
:1037D000100B00F0E9F841EC100B10BD00000000E8
:1037E0000000000000000000000000000000F03FAA
:1037F00010B553EC102B51EC100B00F021F841ECFC
:10380000100B10BD000000009FED050B10B553EC30
:10381000102B51EC100B00F0C7F841EC100B10BD51
:10382000000000000000000081F00041704780F0BF
:103830000040704721F00041704720F00040704781
:1038400010B591EA030F48BF83F0004300F1B6843E
:10385000841A71EB030C05D2121943EB0C03001B05
:1038600061EB0C014FEA1154A4EB135CDFF81CE18F
:103870001EEA430F18BF9EEA445F00F0748021EAFD
:10388000045123EA0E0343F48013DCF1200E32D3FB
:1038900022FA0CFE10EB0E0023FA0CFE41EB0E0197
:1038A000CCF1200E03FA0EFE10EB0E00CCF1200E30
:1038B00051F10001B1F5801F32D201EB045112FA2F
:1038C0000EF2BDE8104058BF7047401C38BF5FEA99
:1038D000420218BF7047002814BF20F0010041F1D8
:1038E00000014FEA410313F5001F38BF7047A1F1F3
:1038F000C04100F0B9BB012A43EB0302ACF1200C3C
:10390000DCF11F0E32BF4FF0000E23FA0CF310EB68
:10391000030041EB0451B4EB115FD0D0A1EB045193
:1039200001F58011490801EB04515FEA30000ED324
:1039300050F1000038BF12FA0EFE08D1BDE8104069
:10394000C9E7401C38BF5FEA4202CAD1C3E7BDE8FD
:1039500010404FEA410313F5001F38BF7047A1F133
:10396000C04100F081BB9EEA445F08D011EA5E0FBF
:10397000BDE8104004BF01F0004100207047BDE8E1
:10398000104070B500F022FB64FBBE3E0000E0FF7B
:10399000491058BFC1F140415B1058BFC3F14043CB
:1039A0008B42EFF3008070472DE9C04130B4DFF85F
:1039B000A4C23CEA111418BF3CEA131400F0ED80D5
:1039C0001CEA111481EA030544EAD57418BF1CEA05
:1039D000131500F0C880A4EB050404F17F7404F50E
:1039E00000344FF0004545EAC12145EAC32341EACE
:1039F000505143EA52534FEAC0204FEAC222994243
:103A000008BF904200F09D804FEA13650FF2441604
:103A1000765D4FEA134506FB05F7C7F1807706FB95
:103A200007F74FEAD737A7FB03687642A7FB06CE16
:103A3000C8F5803838BFA8F1010807FB08E6A6FBE7
:103A4000028C4FF0000EE6FB03CEDCF1000CCEF151
:103A5000004E38BFAEF1010EA6FB0C584FF0000728
:103A6000E6FB0E87A1FB08C6A0FB07CE16EB0E06F1
:103A70004FF0000545F10005E1FB076515F1E04E4B
:103A80007EBFA4F580345FEA46066D4116F18007DB
:103A900045F100054FEA172747EA05674FEA152564
:103AA0004FEA0666A6F1DE46B6F1805F20D93846B9
:103AB00005EBC47124F0010C01EB0C11BCF1FE6F9D
:103AC00002D8F0BCBDE8008124425CBF01F5801E35
:103AD0009EEAC47F02D4F0BCBDE80081244200F11C
:103AE0003980A1F1C041F0BCBDE8004100F0BCBA92
:103AF0004FEAD02040EA41504FEAD1214FEAD2228A
:103B000042EA43524FEAD323A7FB028607FB036630
:103B100005FB02661EEA0E0F58BFA6EB0056B6EB79
:103B200000564FEA520E4EEAC37E18EB0E0E56EBCD
:103B3000530EBCD518EB02085E417F1C55F1000501
:103B4000B5E74FF480154FF000074FF000064FF037
:103B50000008ACE701F1C04101F000414FF0000066
:103B6000F0BCBDE800810CEA131511EA0C1F00D06F
:103B70000CE013EA0C1F00F026804FF0000081EAF1
:103B8000030101F00041F0BCBDE80081F0BCBDE8DC
:103B9000004181EA030100F067BAF0BCBDE80041D2
:103BA00070B500F013FA00BF097EFC3E00F007B8C4
:103BB0004FF0000081EA030101F00041704781EA03
:103BC000030100F051BAF0BCBDE8004122494FF0BA
:103BD00000007047FFFDFBF9F7F5F4F2F0EEEDEBB6
:103BE000E9E8E6E4E3E1E0DEDDDBDAD8D7D5D4D3FB
:103BF000D1D0CFCDCCCBCAC8C7C6C5C4C2C1C0BF47
:103C0000BEBDBCBBBAB9B8B7B6B5B4B3B2B1B0AF4C
:103C1000AEADACABAAA9A8A8A7A6A5A4A3A3A2A130
:103C2000A09F9F9E9D9C9C9B9A99999897979695EB
:103C300095949393929191908F8F8E8E8D8C8C8B87
:103C40008B8A89898888878786858584848383820F
:103C5000828181800000FF070000F87F51EA030C99
:103C600017D41CF5801F58BFBCF5801F00F10680DB
:103C7000994218BF704708BF9042704707D711F5A7
:103C8000801F58BF13F5801F19D49942704789428D
:103C900070471CF5801F08D5BCF5801FF7D58B42F7
:103CA00018BF704708BF824270474FF4001C1CEBDE
:103CB000410F38BF1CEB430F01D28B42704770B5E8
:103CC00000F084F9922449004FF000514FF08053E6
:103CD000FFF75EBE4FEA41034FEA5353A3F58063FB
:103CE000D3F11E03C8BFD3F1210C0CDD4FF000420D
:103CF00042EAC12242EA505232FA03FC8CEAE17CE9
:103D0000ACEBE1707047102BC4BF0020704703F587
:103D1000787CBCF1FF3F04D06FF0004282EA2100C2
:103D2000704770B500F052F9499224800020704726
:103D3000F2E710F0004248BF4042B0FA80F310FAB8
:103D400003F10AD0C3F11D0303F5806302EB0352B4
:103D50004FEA415002EBD12170474FF0000070470D
:103D6000B0FA80F310FA03F10AD0C3F11D0303F592
:103D700080634FEA03524FEA415002EBD121704772
:103D80004FF000007047000051EA030C17D41CF5F7
:103D9000801F58BFBCF5801F00F10680994218BFF4
:103DA000704708BF9042704707D711F5801F58BF72
:103DB00013F5801F19D499427047894270471CF54A
:103DC000801F08D5BCF5801FF7D58B4218BF704700
:103DD00008BF824270474FF4001C1CEB410F38BFF4
:103DE0001CEB430F01D28B42704770B500F0EEF828
:103DF000922449004FF080514FF00053FFF7C8BDA7
:103E000051EA030C17D41CF5801F58BFBCF5801F66
:103E100000F10680994218BF704708BF9042704772
:103E200007D711F5801F58BF13F5801F19D4994289
:103E30007047894270471CF5801F08D5BCF5801F6C
:103E4000F7D58B4218BF704708BF824270474FF4C6
:103E5000001C1CEB410F38BF1CEB430F01D28B42FF
:103E6000704770B500F0B2F8922449004FF000514D
:103E70004FF08053FFF78CBD70B5DFF848C11CEAE6
:103E8000111E1EBF1CEA13159EEA0C0F95EA0C0FBB
:103E900000F06F8081EA03044EEAD47EAE4421EA4A
:103EA0004C1123EA4C1341F4801143F48013AEF11A
:103EB0007F7EA1FB024CA0FB0365361955EB0C0578
:103EC000A1FB034C4CF10003A0FB021C16EB0C06FB
:103ED000654153F10003094218BF46F0010613F48F
:103EE000007F0BD14FEA03314FEA053041EA15510B
:103EF00040EA165034036FF003020AE04FEAC32190
:103F00004FEAC52041EA555140EA5650F4026FF09D
:103F1000020202EB2E4201EB025585EACE710AD075
:103F20005FEA440C18BF24F0004450F1000041F156
:103F3000000120EAD47040F2FE7C624500D270BDE0
:103F4000A84214BF4FF080444FF04044002E08BFF9
:103F50000024BEF1806FA8BFA1F1C041BDE8704050
:103F600080F2828001F1C04101F000414FF0000079
:103F700070470CEA13159EEA0C0F18BF95EA0C0F58
:103F800006D081EA030E4FF000000EF0004170BD34
:103F900000F01CF88900013E00F007B800F009B8F5
:103FA0004FEA430C5FEA5C5C08D081EA030100F051
:103FB0005BB84FEA410C5FEA5C5CF6D102494FF016
:103FC000000070470000FF070000F87F0EF1020EAE
:103FD0002EF0030E5EF8046B364205D4012A43EB43
:103FE000030515F5001F12D8012841EB010C1CF543
:103FF000001F0CD80ED14FEAD17C0CEB4C0C0CF10D
:10400000020C15F5001F08BF4CEBD37C04E04FF009
:10401000080C01E04FEAD37C0CEB4C0526FA05F6C0
:1040200006F00706B6F1040C06D20EEB860CBDE8CE
:1040300070404CF0010C6047DFE80CF0090B020205
:104040004FF00041A1F500214FF0000070BD19466E
:104050001046012851EB010418BFD4F5001484BFA9
:10406000002001F0004170BD0808A0F500114FEAE2
:104070003101704753EA010C17D41CF5801F58BF5B
:10408000BCF5801F00F106808B4218BF704708BF47
:104090008242704707D713F5801F58BF11F5801F64
:1040A00019D48B4270479B4270471CF5801F08D57E
:1040B000BCF5801FF7D5994218BF704708BF9042E2
:1040C00070474FF4001C1CEB430F38BF1CEB410F33
:1040D00001D2994270470FB40CBC03BCFFF7C1BEBC
:1040E0005FEA410C5FEA5C5CACF580635B1C39D431
:1040F000D3F1340240F34580B2F1200314DA4FF0DB
:10410000010C0CFA02FCACF10103034020EA0300AD
:10411000B3EB5C0208BF10EA0C0F98BF704710EBBE
:104120000C0041F1000170470AD0C3F1200201FAEE
:1041300002FC01284CF1000021FA03F101FA03F11D
:104140004FF0010C0CFA03FCACF1010321EA03016E
:10415000B0F1004F08BF11EA0C0F4FF0000088BF0C
:1041600061447047B3F1FF3F28BF50EAC12C01F012
:1041700000414FF0000084BF41F07C5141F47001D8
:104180007047B3F5806FB8BF704770B5FFF71EFF7B
:1041900040DBB6BE10B591EA030F81F000413FF558
:1041A00057AB83F0004300F009B8000010B591EA66
:1041B000030F48BF83F000433FF54AAB841A71EB0D
:1041C000030C07D28CF0004C121943EB0C03001BBC
:1041D00061EB0C014FEA1154A4EB135CDFF8A4E18E
:1041E0001EEA430F18BF9EEA445F00F0B48021EA44
:1041F000045123EA6E035242C3EB6E0338BF5B1EC9
:10420000DCF1200E25D322FA0CFE10EB0E0043FA4F
:104210000CFE41EB0E01CCF1200E03FA0EFE10EB6A
:104220000E00CCF1200E51F1000129D401EB045114
:1042300012FA0EF2BDE8104058BF7047401C1CBF78
:10424000B2F1004F704700280CBF491C20F001005C
:10425000704712EB020E43EB030218BF4FF0010E42
:104260004EEA4202ACF1200CDCF11E0E56D943FAA4
:104270000CFE10EB0E00CCF11E0E51F1FF31D5D526
:104280000EF1010E12FA0EFE404141EB010101EB6D
:10429000445C5FEA5C5C10D901EB045110EBDE700A
:1042A00038BFBEF1004FBDE8104018BF704700286E
:1042B0000CBF491C20F00100704734D24FEAD42CC7
:1042C00024F4006411F500111BD0B1FA81F20B3A0D
:1042D000A41AA41ED2F12003914030FA03F319432B
:1042E000904001EBCC7101EB0451002CBDE8104073
:1042F000A8BF704701F1C04101F000414FF000003C
:104300007047B0FA80F310FA03F102D1BDE8104013
:104310007047E41A173C4805C90AE2E701EB04516B
:10432000BDE81040704749104FEA300001EB0451DE
:10433000BDE8104002E04FF0000170474A0008BF9E
:104340000042F8D0B2F5001F28BF704701F00041CD
:104350004FF0000070479EEA445F07D011EA5E0FFD
:10436000BDE8104004BF002100207047BDE81040A8
:1043700070B5FFF72BFE00BF40DFF63E104683F01E
:10438000004170470000E0FF10B5FFF767FC0CBF6D
:104390000120002010BD10B5FFF760FC14BF012004
:1043A000002010BD10B5FFF7EFFC8CBF01200020EE
:1043B00010BD10B5FFF7E8FC2CBF0120002010BD98
:1043C00010B5FFF71DFD94BF0120002010BD10B5F2
:1043D000FFF716FD34BF0120002010BDF1EE100ADA
:1043E0004FF6FF71C0F2C03120EA010040F040708A
:1043F000E1EE100A7047000004FA97999999D93FA5
:10440000AF788E1DC571CC3F9FC678D0099AC33F47
:10441000935555555555E53F599322942449D23F1C
:10442000DE03CB966446C73F44523EDF12F1C23FE3
:10443000000000000000000000000000000000007C
:1044400001020304060708090006101600061016EC
:10445000704400080000002030000000C401000883
:10446000A04400083000002030090000E0010008EE
:10447000083202090B0A080501008A020700000041
:104480005F000000940100007803000001000000BC
:10449000100000000024F400B01300000000000031
:040000050800018965
:00000001FF
